:020000040000FA
:100000000C9462000C948A000C948A000C948A0070
:100010000C948A000C948A000C948A000C948A0038
:100020000C948A000C948A000C948A000C948A0028
:100030000C948A000C948A000C948A000C948A0018
:100040000C9400030C948A000C94CE020C94A80229
:100050000C948A000C948A000C948A000C948A00F8
:100060000C948A000C948A000000000024002700F1
:100070002A0000000000250028002B0000000000DE
:1000800023002600290004040404040404040202DA
:100090000202020203030303030301020408102007
:1000A0004080010204081020010204081020000012
:1000B0000008000201000003040700000000000027
:1000C0000000DA1211241FBECFEFD8E0DEBFCDBF93
:1000D00011E0A0E0B1E0ECE7F8E202C005900D927B
:1000E000A436B107D9F722E0A4E6B1E001C01D9221
:1000F000A836B207E1F710E0C2E6D0E004C02197CD
:10010000FE010E943614C136D107C9F70E944A0386
:100110000C943C140C940000AF92BF92CF92DF92EB
:10012000EF92FF920F931F93CF93DF936C017B01AC
:100130008B01040F151FEB015E01AE18BF08C0173D
:10014000D10759F06991D601ED91FC910190F081B0
:10015000E02DC6010995892B79F7C501DF91CF9173
:100160001F910F91FF90EF90DF90CF90BF90AF90D5
:100170000895FC01538D448D252F30E0842F90E0AD
:10018000821B930B541710F0CF9608950197089592
:10019000FC01918D828D981761F0A28DAE0FBF2F5B
:1001A000B11D5D968C91928D9F5F9F73928F90E0B1
:1001B00008958FEF9FEF0895FC01918D828D981720
:1001C00031F0828DE80FF11D858D90E008958FEF5D
:1001D0009FEF0895FC01918D228D892F90E0805C26
:1001E0009F4F821B91098F73992708958BEC91E0A3
:1001F0000E94EA0021E0892B09F420E0822F089573
:1002000080E090E0892B29F00E94F60081110C9487
:1002100000000895FC01A48DA80FB92FB11DA35AA9
:10022000BF4F2C91848D90E001968F739927848F16
:10023000A689B7892C93A089B1898C918370806439
:100240008C93938D848D981306C00288F389E02DDA
:1002500080818F7D80830895EF92FF920F931F938B
:10026000CF93DF93EC0181E0888F9B8D8C8D981369
:100270001AC0E889F989808185FF15C09FB7F89475
:10028000EE89FF896083E889F989808183708064C1
:1002900080839FBF81E090E0DF91CF911F910F910C
:1002A000FF90EF900895F62E0B8D10E00F5F1F4F1B
:1002B0000F731127E02E8C8D8E110CC00FB607FC2A
:1002C000FACFE889F989808185FFF5CFCE010E94B8
:1002D0000A01F1CFEB8DEC0FFD2FF11DE35AFF4F1B
:1002E000F0829FB7F8940B8FEA89FB898081806246
:1002F000CFCFCF93DF93EC01888D8823B9F0AA8903
:10030000BB89E889F9898C9185FD03C0808186FDD0
:100310000DC00FB607FCF7CF8C9185FFF2CF80811F
:1003200085FFEDCFCE010E940A01E9CFDF91CF9189
:100330000895833081F028F4813099F08230A9F05B
:1003400008958730A9F08830C9F08430B1F48091E5
:1003500080008F7D03C0809180008F778093800024
:10036000089584B58F7784BD089584B58F7DFBCFC4
:100370008091B0008F778093B00008958091B00095
:100380008F7DF9CFCF93DF93282F30E0F901E2552D
:10039000FF4F8491F901E656FF4FD491F901EA57D6
:1003A000FF4FC491CC23A1F081110E949901EC2F41
:1003B000F0E0EE0FFF1FE458FF4FA591B491EC91D0
:1003C000ED2381E090E009F480E0DF91CF91089582
:1003D00080E090E0FACF1F93CF93DF93282F30E097
:1003E000F901E255FF4F8491F901E656FF4FD49190
:1003F000F901EA57FF4FC491CC23A9F0162F8111C0
:100400000E949901EC2FF0E0EE0FFF1FEE58FF4F16
:10041000A591B4918FB7F894EC91111108C0D095C3
:10042000DE23DC938FBFDF91CF911F910895DE2BE8
:10043000F8CFCF93DF9390E0FC01E656FF4F249175
:100440008A579F4FFC0184918823C9F090E0880F60
:10045000991FFC01E859FF4FA591B491FC01EE589A
:10046000FF4FC591D49161110DC09FB7F8948C9145
:10047000209582238C938881282328839FBFDF9136
:10048000CF910895623051F49FB7F8943C91822F38
:10049000809583238C93E8812E2BEFCF8FB7F89430
:1004A000EC912E2B2C938FBFEACF8E3008F08E501C
:1004B0008770806480937C0080917A008064809350
:1004C0007A0080917A0086FDFCCF8091780090912F
:1004D000790008953FB7F8948091690190916A017D
:1004E000A0916B01B0916C0126B5A89B05C02F3F70
:1004F00019F00196A11DB11D3FBFBA2FA92F982F4A
:100500008827BC01CD01620F711D811D911D42E044
:10051000660F771F881F991F4A95D1F708952FB747
:10052000F8946091650170916601809167019091E6
:1005300068012FBF0895FC0101900020E9F7319771
:10054000AF01481B590BBC018BEC91E00C948C0063
:100550001F920F920FB60F9211242F933F934F9338
:100560005F936F937F938F939F93AF93BF93EF931B
:10057000FF938BEC91E00E940A01FF91EF91BF91F4
:10058000AF919F918F917F916F915F914F913F912B
:100590002F910F900FBE0F901F9018951F920F92E2
:1005A0000FB60F9211242F938F939F93EF93FF9386
:1005B000E091DB01F091DC018081E091E101F091BB
:1005C000E20182FD1BC090818091E4018F5F8F73F7
:1005D0002091E501821741F0E091E401F0E0E5535C
:1005E000FE4F958F8093E401FF91EF919F918F9142
:1005F0002F910F900FBE0F901F9018958081F4CF10
:100600001F920F920FB60F9211242F933F938F9347
:100610009F93AF93BF938091650190916601A091E4
:100620006701B09168013091640123E0230F2D37F9
:1006300058F50196A11DB11D2093640180936501B9
:1006400090936601A0936701B0936801809169015E
:1006500090916A01A0916B01B0916C010196A11D6E
:10066000B11D8093690190936A01A0936B01B093CF
:100670006C01BF91AF919F918F913F912F910F90FE
:100680000FBE0F901F90189526E8230F0296A11D0C
:10069000B11DD2CFCF93DF9300D000D000D0CDB723
:1006A000DEB7789484B5826084BD84B5816084BDF2
:1006B00085B5826085BD85B5816085BD80916E0000
:1006C000816080936E001092810080918100826031
:1006D000809381008091810081608093810080916E
:1006E00080008160809380008091B100846080935D
:1006F000B1008091B00081608093B00080917A0059
:10070000846080937A0080917A00826080937A007E
:1007100080917A00816080937A0080917A0080686D
:1007200080937A001092C100E091DB01F091DC012E
:1007300082E08083E091D701F091D8011082E091AE
:10074000D901F091DA0180E180831092E301E09118
:10075000DF01F091E00186E08083E091DD01F0911E
:10076000DE01808180618083E091DD01F091DE0116
:10077000808188608083E091DD01F091DE018081DD
:1007800080688083E091DD01F091DE0180818F7DC2
:10079000808362E084E00E94190260E085E00E94AC
:1007A000190260E086E00E94190260E087E00E9482
:1007B000190260E088E00E94190260E089E00E946E
:1007C000190260E08AE00E94190260E08BE00E945A
:1007D000190260E08CE00E94190260E08DE00E9446
:1007E000190260E08EE00E94190260E08FE00E9432
:1007F000190261E083E00E941902E3EBF1E087EC6B
:1008000091E0119211928E179F07D9F70E946A0208
:100810004B015C01E8EECE2EE3E0DE2EE12CF12C64
:100820000E946A02681979098A099B09683E734027
:1008300081059105A8F321E0C21AD108E108F10869
:1008400038EE830E33E0931EA11CB11CC114D104F9
:10085000E104F10429F78CE191E00E949B0205E09C
:1008600010E06CE0E62EF12C7BE0472E512C3AE0B4
:10087000632E712C49E0842E912C54E0252E312CCE
:10088000C090C701D090C801C601880F991FFC0114
:10089000ED54FE4FFA83E9838091C9019091CA011A
:1008A000208131815C01A21AB30A84E10E945502C1
:1008B000E981FA81918380838A0D9B1D9093CA01FF
:1008C0008093C901FFEFCF1ADF0A2AE0C216D104D4
:1008D0000CF098C2D092C801C092C701B3010E9427
:1008E0000E146B017093B2016093B10184E00E9419
:1008F000C201892B09F08BC241E050E05093B00156
:100900004093AF0185E00E94C201892B09F084C2A7
:1009100081E090E09093AE018093AD0186E00E946B
:10092000C201892B09F07DC2E1E0F0E0F093AC0157
:10093000E093AB0187E00E94C201892B09F076C2E7
:10094000AA24A394B12CB092AA01A092A90188E094
:100950000E94C201892B09F06EC221E030E0309381
:10096000A8012093A70189E00E94C201892B09F008
:1009700067C241E050E05093A6014093A5018AE090
:100980000E94C201892B09F060C281E090E090933F
:10099000A4018093A3018BE00E94C201892B09F07E
:1009A00059C2E1E0F0E0F093A201E093A1018CE0F4
:1009B0000E94C201892B09F052C2AA24A394B12C2F
:1009C000B092A001A0929F018DE00E94C201892BEC
:1009D00009F04AC221E030E030939E0120939D014E
:1009E0008EE00E94C201892B09F043C241E050E031
:1009F00050939C0140939B018FE00E94C201892B80
:100A000009F03CC281E090E090939A0180939901B3
:100A100080910401909105018130910509F07EC219
:100A200084E00E94C201892B09F02DC2E1E0F0E0D0
:100A3000F0939801E0939701AA24AA94BA2CB0925B
:100A40000301A09202010E948F02609393017093B0
:100A5000940180939501909396018091AF019091BC
:100A6000B0018130910509F0A0C22091AD01309113
:100A7000AE01232B09F042C02091AB013091AC01B3
:100A8000232BE1F52091A9013091AA01232BB1F587
:100A90002091A7013091A801232B81F52091A50178
:100AA0003091A601232B51F52091A3013091A4018F
:100AB000232B21F52091A1013091A201232BF1F4E8
:100AC00020919F013091A001232BC1F420919D0121
:100AD00030919E01232B91F420919B0130919C0138
:100AE000232B61F42091990130919A01232B31F449
:100AF00041E050E050939201409391012091910187
:100B00003091920130930101209300012130310591
:100B100009F0A3C24091AD015091AE0141305105A1
:100B200031F442E050E050930101409300014091C4
:100B3000AB015091AC014130510531F443E050E03C
:100B400050930101409300014091A9015091AA01E5
:100B50004130510521F43092010120920001409171
:100B6000A7015091A8014130510521F410930101D2
:100B7000009300014091A5015091A601413051051B
:100B800031F4E6E0F0E0F0930101E09300014091E0
:100B9000A3015091A4014130510539F4F7E0AF2E83
:100BA000B12CB0920101A09200014091A10150919D
:100BB000A2014130510531F448E050E05093010169
:100BC0004093000140919F015091A0014130510597
:100BD00021F4909201018092000140919D01509179
:100BE0009E014130510521F4709201016092000193
:100BF00040919B0150919C014130510521F450924C
:100C00000101409200014091990150919A014130B7
:100C1000510521F4F0920101E092000126303105E6
:100C200009F0AAC28130910521F4909301018093CB
:100C300000014091AB015091AC014130510531F4BC
:100C400043E050E050930101409300014091A9011D
:100C50005091AA014130510521F4309201012092B6
:100C600000014091A7015091A8014130510521F4A4
:100C700010930101009300014091AD015091AE012C
:100C80004130510531F442E050E05093010140936E
:100C900000014091A3015091A4014130510531F46C
:100CA000E7E0F0E0F0930101E09300014091A10141
:100CB0005091A2014130510539F458E0A52EB12CD4
:100CC000B0920101A092000140919F015091A001BA
:100CD0004130510521F49092010180920001409130
:100CE0009D0150919E014130510521F47092010106
:100CF0006092000140919B0150919C01413051054F
:100D000021F45092010140920001409199015091CB
:100D10009A014130510521F4F0920101E092000165
:100D20002B30310509F0A9C28130910521F490934F
:100D30000101809300018091AB019091AC0101977A
:100D400031F483E090E09093010180930001809161
:100D5000A9019091AA01019721F4309201012092FA
:100D600000018091A7019091A801019721F41093AF
:100D70000101009300018091A5019091A6010197C6
:100D800031F486E090E0909301018093000180911E
:100D9000A3019091A401019731F4E7E0F0E0F09312
:100DA0000101E09300018091A1019091A2010197BE
:100DB00039F428E0A22EB12CB0920101A0920001DA
:100DC00080919F019091A001019721F490920101DF
:100DD0008092000180919D0190919E01019721F4E4
:100DE00070920101609200018091AD019091AE017D
:100DF000019709F009C482E090E09093010180938B
:100E0000000102C41092C8011092C70167CD109270
:100E1000B0011092AF0176CD1092AE011092AD01EB
:100E20007DCD1092AC011092AB0184CD1092AA013D
:100E30001092A9018CCD1092A8011092A70193CD18
:100E40001092A6011092A5019ACD1092A4011092C1
:100E5000A301A1CD1092A2011092A101A8CD1092E0
:100E6000A00110929F01B0CD10929E0110929D01A1
:100E7000B7CD10929C0110929B01BECD10929A01A9
:100E800010929901C5CD85E00E94C201892B09F419
:100E9000CDCD86E00E94C201892B09F4C7CD87E041
:100EA0000E94C201892B09F4C1CD88E00E94C201D1
:100EB000892B09F4BBCD89E00E94C201892B09F47A
:100EC000B5CD8AE00E94C201892B09F4AFCD8BE039
:100ED0000E94C201892B09F4A9CD8CE00E94C201B5
:100EE000892B09F4A3CD8DE00E94C201892B09F45E
:100EF0009DCD8EE00E94C201892B09F497CD8FE031
:100F00000E94C201892B09F491CD10930301009333
:100F1000020110929801109297019FCD892B09F040
:100F20009CCD84E00E94C201892BC1F185E00E9422
:100F3000C201892B99F186E00E94C201892B71F1CF
:100F400087E00E94C201892B49F188E00E94C2011A
:100F5000892B21F189E00E94C201892BF9F08AE0F6
:100F60000E94C201892BD1F08BE00E94C201892B23
:100F7000A9F08CE00E94C201892B81F08DE00E94D3
:100F8000C201892B59F08EE00E94C201892B31F0F9
:100F90008FE00E94C201892B09F0BBCF21E030E035
:100FA000309398012093970158CD009709F0A6CD72
:100FB0002091AD013091AE012130310509F039C7E2
:100FC0002091AB013091AC01232B09F097CD2091FA
:100FD000A9013091AA01232B09F090CD2091A701FE
:100FE0003091A801232B09F089CD2091A5013091E2
:100FF000A601232B09F082CD2091A3013091A401F9
:10100000232B09F07BCD2091A1013091A201232B4C
:1010100009F074CD20919F013091A001232B09F09C
:101020006DCD20919D0130919E01232B09F066CD5D
:1010300020919B0130919C01232B09F05FCD2091E1
:10104000990130919A01232B09F058CD22E030E02C
:10105000309392012093910151CD2230310549F412
:101060008130910509F063CD9093010180930001D7
:101070005ECD2330310511F00C94E71181309105DC
:1010800021F490930101809300014091AD015091B2
:10109000AE014130510531F442E050E0509301017E
:1010A000409300014091A9015091AA01413051059E
:1010B00021F430920101209200014091A70150914A
:1010C000A8014130510521F4109301010093000162
:1010D0004091A5015091A6014130510531F4E6E05F
:1010E000F0E0F0930101E09300014091A3015091E1
:1010F000A4014130510539F4E7E0AE2EB12CB09295
:101100000101A09200014091A1015091A201413042
:10111000510531F448E050E0509301014093000143
:1011200040919F015091A0014130510521F49092CE
:1011300001018092000140919D0150919E0141303A
:10114000510521F4709201016092000140919B01D0
:1011500050919C014130510521F45092010140927F
:1011600000014091990150919A014130510521F4BB
:10117000F0920101E09200012730310509F078C1B9
:101180008130910521F490930101809300014091F9
:10119000AB015091AC014130510531F443E050E0D6
:1011A00050930101409300014091A9015091AA017F
:1011B0004130510521F4309201012092000140910B
:1011C000A7015091A8014130510521F4109301016C
:1011D000009300014091A5015091A60141305105B5
:1011E00031F446E050E050930101409300014091FA
:1011F000AD015091AE014130510531F442E050E073
:1012000050930101409300014091A1015091A2012E
:101210004130510531F4E8E0F0E0F0930101E09352
:10122000000140919F015091A0014130510521F4EE
:10123000909201018092000140919D0150919E0188
:101240004130510521F470920101609200014091FA
:101250009B0150919C014130510521F450920101B4
:10126000409200014091990150919A0141305105FD
:1012700021F4F0920101E09200012C30310509F0D7
:10128000CDC18130910521F490930101809300013B
:101290008091AB019091AC01019731F483E090E033
:1012A00090930101809300018091A9019091AA017E
:1012B000019721F430920101209200018091A70151
:1012C0009091A801019721F410930101009300016E
:1012D0008091A5019091A601019731F426E030E0BC
:1012E00030930101209300018091A3019091A4010A
:1012F000019731F447E050E0509301014093000121
:101300008091A1019091A201019731F488E090E0D1
:10131000909301018093000180919F019091A00121
:10132000019721F4909201018092000180919D012A
:1013300090919E01019721F4709201016092000149
:1013400080919B0190919C01019721F450920101A1
:10135000409200018091AD019091AE01019709F09A
:101360005DC182E090E0909301018093000156C13D
:101370008130910521F49093010180930001409107
:10138000AB015091AC014130510531F443E050E0E4
:1013900050930101409300014091AD015091AE0185
:1013A0004130510531F442E050E050930101409347
:1013B00000014091A7015091A8014130510521F44D
:1013C00010930101009300014091A5015091A601E5
:1013D0004130510531F4E6E0F0E0F0930101E09393
:1013E00000014091A3015091A4014130510539F40D
:1013F00077E0A72EB12CB0920101A092000140919C
:10140000A1015091A2014130510531F448E050E072
:10141000509301014093000140919F015091A00120
:101420004130510521F490920101809200014091D8
:101430009D0150919E014130510521F470920101AE
:101440006092000140919B0150919C0141305105F7
:1014500021F4509201014092000140919901509174
:101460009A014130510521F4F0920101E09200010E
:101470002830310509F45EC02930310511F00C9493
:1014800071128130910521F4909301018093000144
:101490008091AB019091AC01019731F483E090E031
:1014A00090930101809300018091A9019091AA017C
:1014B000019721F430920101209200018091A7014F
:1014C0009091A801019721F410930101009300016C
:1014D0008091A5019091A601019731F446E050E07A
:1014E00050930101409300018091A3019091A401C8
:1014F000019731F487E090E090930101809300011F
:101500008091A1019091A201019731F4E8E0F0E00F
:10151000F0930101E09300018091AD019091AE0143
:10152000019709F05DC082E090E090930101809303
:10153000000156C08130910521F490930101809300
:1015400000018091AB019091AC01019731F483E0EF
:1015500090E090930101809300018091A901909106
:10156000AA01019721F4309201012092000180919B
:10157000A7019091A801019721F410930101009314
:1015800000018091A5019091A601019739F446E0F0
:10159000A42EB12CB0920101A09200018091A30170
:1015A0009091A401019731F427E030E030930101DC
:1015B000209300018091AD019091AE01019731F42B
:1015C00082E090E0909301018093000180919F015F
:1015D0009091A001019721F4909201018092000165
:1015E00080919D0190919E01019721F470920101DB
:1015F0006092000180919B0190919C01019721F4E0
:1016000050920101409200018091990190919A01BC
:10161000019721F4F0920101E092000184E10E941F
:101620005502C3970CF4CDC3D0929001C0928F01A4
:10163000E1E0F0E0F0938E01E0938D0120918F01C5
:1016400030919001032E000C440B550B22533109AD
:1016500041095109ABE0B0E00E94CA132EEC31E021
:1016600040E050E00E94AB13DA01C9010196A11DD0
:10167000B11D8D3091050CF0ADC390939001809316
:101680008F0184E10E945502C39774F08091970105
:1016900090919801892B41F480918F019091900154
:1016A000909301018093000180918D0190918E01B2
:1016B00020918B0130918C012817390771F0892B0B
:1016C00021F480E491E00E949B0280918D01909131
:1016D0008E0190938C0180938B01C0908F01D090EC
:1016E00090018091890190918A018C159D0589F066
:1016F000C114D10471F00E948F0260939301709322
:1017000094018093950190939601D0928A01C092A2
:101710008901809100019091010120918701309110
:1017200088012817390709F4D4C0019761F48FE1C3
:1017300091E00E949B0280910001909101019093A1
:1017400088018093870180910001909101010297A7
:1017500061F481E291E00E949B02809100019091EE
:1017600001019093880180938701809100019091FD
:101770000101039761F483E291E00E949B02809152
:1017800000019091010190938801809387018091DD
:10179000000190910101049761F485E291E00E94BB
:1017A0009B028091000190910101909388018093A8
:1017B00087018091000190910101059761F487E212
:1017C00091E00E949B028091000190910101909311
:1017D0008801809387018091000190910101069713
:1017E00061F489E291E00E949B0280910001909156
:1017F000010190938801809387018091000190916D
:101800000101079761F48BE291E00E949B028091B5
:10181000000190910101909388018093870180914C
:10182000000190910101089761F48DE291E00E941E
:101830009B02809100019091010190938801809317
:1018400087018091000190910101099761F48FE275
:1018500091E00E949B028091000190910101909380
:1018600088018093870180910001909101010A977E
:1018700061F481E391E00E949B02809100019091CC
:1018800001019093880180938701809100019091DC
:1018900001010B9761F483E391E00E949B02809128
:1018A00000019091010190938801809387018091BC
:1018B0000001909101010C9761F485E391E00E9491
:1018C0009B02809100019091010190938801809387
:1018D0008701809197019091980120918501309125
:1018E000860128173907B9F0009709F078C280E41B
:1018F00091E00E949B0280919701909198019093B2
:1019000086018093850110920101109200011092CE
:1019100088011092870185E10E9455020A973CF4E4
:10192000AA24A394B12CB0928401A092830185E1F2
:101930000E9455020A9724F01092840110928301AC
:10194000C0908301D09084018091810190918201A7
:101950008C159D0591F021E0C216D10471F40E940E
:101960008F0260937D0170937E0180937F0190933D
:101970008001D0928201C092810180918101909179
:101980008201C816D90659F1CD2849F5A090040165
:10199000B0900501C0907B01D0907C010E948F0225
:1019A00020917D0130917E0140917F015091800115
:1019B000DC01CB01821B930BA40BB50B893E33E0FA
:1019C0009307A105B10508F40FC2C50101969093D4
:1019D000050180930401109282011092810180918F
:1019E000040190910501029724F0109205011092D4
:1019F000040180917B0190917C01029724F0109268
:101A00007C0110927B0181E10E945502813092405D
:101A10003CF0AA24A394B12CB0927A01A09279014F
:101A200081E10E9455028130924024F410927A01A3
:101A3000109279018091790190917A01209177013A
:101A4000309178012817390789F08130910571F4B8
:101A500020917B0130917C012F5F3F4F30937C01BF
:101A600020937B01909378018093770183E10E941A
:101A700055028C3092400CF4C5C141E050E05093C7
:101A800076014093750180917501909176012091C6
:101A90007301309174012817390721F1019711F56D
:101AA0000E9453132CE030E040E050E00E94AB1362
:101AB0006F5F7F4F8F4F9F4F7093720160937101E3
:101AC0000E948F026093930170939401809395011B
:101AD0009093960180917501909176019093740195
:101AE000809373018091970190919801892B09F05F
:101AF0000BC180917B0190917C0120916F0130910D
:101B000070012817390701F1892B61F487E391E00F
:101B10000E949B0280917B0190917C0190937001C7
:101B200080936F0180917B0190917C01019761F41A
:101B30008BE391E00E949B0280917B0190917C015C
:101B40009093700180936F01809171019091720167
:101B500020916D0130916E012817390709F4D4C026
:101B6000019761F48FE391E00E949B0280917101E3
:101B70009091720190936E0180936D01809171013B
:101B800090917201029761F482E491E00E949B02BD
:101B9000809171019091720190936E0180936D011B
:101BA0008091710190917201039761F485E491E055
:101BB0000E949B02809171019091720190936E013D
:101BC00080936D018091710190917201049761F48D
:101BD00088E491E00E949B028091710190917201D2
:101BE00090936E0180936D018091710190917201CB
:101BF000059761F48BE491E00E949B028091710152
:101C00009091720190936E0180936D0180917101AA
:101C100090917201069761F48EE491E00E949B021C
:101C2000809171019091720190936E0180936D018A
:101C30008091710190917201079761F481E591E0C3
:101C40000E949B02809171019091720190936E01AC
:101C500080936D018091710190917201089761F4F8
:101C600084E591E00E949B02809171019091720144
:101C700090936E0180936D0180917101909172013A
:101C8000099761F487E591E00E949B0280917101C0
:101C90009091720190936E0180936D01809171011A
:101CA000909172010A9761F48AE591E00E949B028B
:101CB000809171019091720190936E0180936D01FA
:101CC00080917101909172010B9761F48DE591E023
:101CD0000E949B02809171019091720190936E011C
:101CE00080936D0180917101909172010C9761F464
:101CF00080E691E00E949B028091710190917201B7
:101D000090936E0180936D018091790190917A0199
:101D1000909378018093770180917501909176017D
:101D20009093740180937301809183019091840159
:101D3000909382018093810180E10E9455028D324F
:101D4000914054F00E948F0260939301709394012C
:101D500080939501909396010E948F02A090930129
:101D6000B0909401C0909501D0909601A982BA825A
:101D7000CB82DC82AB01BC014A195B096C097D098D
:101D80008091020190910301092E000CAA0BBB0B5C
:101D900084179507A607B707D0F160E083E00E949B
:101DA000EB0180E090E0892B11F40C9440040E9438
:101DB000F600882311F40C9437040E9400000C9460
:101DC00037041092900110928F0110928E011092A0
:101DD0008D0134CCF0929001E0928F0152CC90931F
:101DE00086018093850197CD883E9340A105B1057A
:101DF00009F4F5CD5FEFC51AD50AD0927C01C092E7
:101E00007B01E9CD10927601109275013CCE0E94C3
:101E10008F02A980BA80CB80DC806A197B098C098B
:101E20009D09603171058105910508F0B6CF61E02B
:101E3000B5CF232B11F00C947E052091AB0130918E
:101E4000AC0121303105E1F54091A9015091AA0181
:101E5000452BB1F54091A7015091A801452B81F583
:101E60004091A5015091A601452B51F54091A30148
:101E70005091A401452B21F54091A1015091A2015F
:101E8000452BF1F440919F015091A001452BC1F4E5
:101E900040919D0150919E01452B91F440919B01F1
:101EA00050919C01452B61F44091990150919A0108
:101EB000452B31F443E050E050939201409391015F
:101EC00021153105D9F54091A9015091AA01413060
:101ED0005105A1F54091A7015091A801452B71F53D
:101EE0004091A5015091A601452B41F54091A301D8
:101EF0005091A401452B11F54091A1015091A201EF
:101F0000452BE1F440919F015091A001452BB1F484
:101F100040919D0150919E01452B81F440919B0180
:101F200050919C01452B51F44091990150919A0197
:101F3000452B21F430929201209291012115310517
:101F4000D9F54091A9015091AA01452BA9F54091DD
:101F5000A7015091A8014130510571F54091A501AB
:101F60005091A601452B41F54091A3015091A40148
:101F7000452B11F54091A1015091A201452BE1F4AF
:101F800040919F015091A001452BB1F440919D01DA
:101F900050919E01452B81F440919B0150919C01F1
:101FA000452B51F44091990150919A01452B21F410
:101FB000109392010093910121153105E9F54091AB
:101FC000A9015091AA01452BB9F54091A701509163
:101FD000A801452B89F54091A5015091A6014130FA
:101FE000510551F54091A3015091A401452B21F5D4
:101FF0004091A1015091A201452BF1F440919F0124
:102000005091A001452BC1F440919D0150919E013A
:10201000452B91F440919B0150919C01452B61F41B
:102020004091990150919A01452B31F4E6E0F0E09E
:10203000F0939201E093910121153105F1F5409162
:10204000A9015091AA01452BC1F54091A7015091DA
:10205000A801452B91F54091A5015091A601452B72
:1020600061F54091A3015091A4014130510529F53A
:102070004091A1015091A201452BF9F440919F019B
:102080005091A001452BC9F440919D0150919E01B2
:10209000452B99F440919B0150919C01452B69F48B
:1020A0004091990150919A01452B39F4A7E0AA2E4D
:1020B000B12CB0929201A092910121153105E9F560
:1020C0004091A9015091AA01452BB9F54091A70172
:1020D0005091A801452B89F54091A5015091A60189
:1020E000452B59F54091A3015091A401452B29F5A9
:1020F0004091A1015091A20141305105F1F440916C
:102100009F015091A001452BC1F440919D01509138
:102110009E01452B91F440919B0150919C01452BD0
:1021200061F44091990150919A01452B31F448E0B6
:1021300050E0509392014093910121153105D9F55A
:102140004091A9015091AA01452BA9F54091A70101
:102150005091A801452B79F54091A5015091A60118
:10216000452B49F54091A3015091A401452B19F548
:102170004091A1015091A201452BE9F440919F01AA
:102180005091A00141305105B1F440919D01509111
:102190009E01452B81F440919B0150919C01452B60
:1021A00051F44091990150919A01452B21F490925C
:1021B00092018092910121153105D9F54091A90133
:1021C0005091AA01452BA9F54091A7015091A80172
:1021D000452B79F54091A5015091A601452B49F574
:1021E0004091A3015091A401452B19F54091A10103
:1021F0005091A201452BE9F440919F015091A0011B
:10220000452BB9F440919D0150919E0141305105FB
:1022100081F440919B0150919C01452B51F44091D8
:10222000990150919A01452B21F47092920160928C
:10223000910121153105D9F54091A9015091AA01CB
:10224000452BA9F54091A7015091A801452B79F59F
:102250004091A5015091A601452B49F54091A3015C
:102260005091A401452B19F54091A1015091A20173
:10227000452BE9F440919F015091A001452BB9F401
:1022800040919D0150919E01452B89F440919B0105
:1022900050919C014130510551F440919901509168
:1022A0009A01452B21F450929201409291012115FF
:1022B0003105D9F54091A9015091AA01452BA9F505
:1022C0004091A7015091A801452B79F54091A501B6
:1022D0005091A601452B49F54091A3015091A401CD
:1022E000452B19F54091A1015091A201452BE9F42C
:1022F00040919F015091A001452BB9F440919D015F
:1023000050919E01452B89F440919B0150919C0175
:10231000452B59F44091990150919A014130510552
:1023200021F4F0929201E0929101232B11F00C9490
:102330007E052091A9013091AA01232B11F00C9464
:102340007E052091A7013091A801232B11F00C9458
:102350007E052091A5013091A601232B11F00C944C
:102360007E052091A3013091A401232B11F00C9440
:102370007E052091A1013091A201232B11F00C9434
:102380007E0520919F013091A001232B11F00C9428
:102390007E0520919D0130919E01232B11F00C941C
:1023A0007E0520919B0130919C01232B11F00C9410
:1023B0007E052091990130919A01232B11F00C9404
:1023C0007E0510929201109291010C947E052430AA
:1023D000310511F40C94B8092530310511F00C9435
:1023E0000E068130910521F4909301018093000144
:1023F0004091AB015091AC014130510531F443E0C3
:1024000050E050930101409300014091A901509187
:10241000AA014130510521F43092010120920001BE
:102420004091AD015091AE014130510531F442E08F
:1024300050E050930101409300014091A50150915B
:10244000A6014130510531F4E6E0F0E0F0930101DE
:10245000E09300014091A3015091A4014130510546
:1024600039F467E0A62EB12CB0920101A0920001D0
:102470004091A1015091A2014130510531F448E051
:1024800050E0509301014093000140919F01509111
:10249000A0014130510521F4909201018092000188
:1024A00040919D0150919E014130510521F470925F
:1024B00001016092000140919B0150919C014130CB
:1024C000510521F45092010140920001409199017F
:1024D00050919A014130510521F4F0920101E092AE
:1024E00000012A30310511F00C94900681309105DD
:1024F00021F490930101809300018091AB019091B0
:10250000AC01019731F483E090E090930101809356
:1025100000018091A9019091AA01019721F43092C4
:102520000101209200018091A7019091A8010197DB
:1025300021F410930101009300018091A501909175
:10254000A601019739F436E0A32EB12CB092010117
:10255000A09200018091A3019091A401019731F410
:1025600027E030E030930101209300018091A10128
:102570009091A201019731F448E050E0509301019D
:102580004093000180919F019091A001019721F457
:1025900090920101809200018091AD019091AE0175
:1025A000019709F027C882E090E0909301018093A1
:1025B000000120C8EBECF1E01382128288EE93E078
:1025C000A0E0B0E084839583A683B7838EE091E09A
:1025D0009183808385EC90E09587848784EC90E0FC
:1025E0009787868780EC90E0918B808B81EC90E0E0
:1025F000938B828B82EC90E0958B848B86EC90E0C1
:10260000978B868B118E128E138E148E08958F9257
:102610009F92AF92BF92CF92DF92EF92FF92CF93B1
:10262000DF93EC01688179818A819B816115710555
:102630008105910521F464E279ED8BE597E02DE1C8
:1026400033EF41E050E00E94AB1349015A019B0176
:10265000AC01A7EAB1E40E94CA136B017C01ACEEA5
:10266000B4EFA50194010E94D813C60ED71EE81E30
:10267000F91EF7FE06C081E0C81AD108E10880E81B
:10268000F80AC882D982EA82FB82C701B6019F7725
:10269000DF91CF91FF90EF90DF90CF90BF90AF9000
:1026A0009F908F9008958F929F92AF92BF92CF92FA
:1026B000DF92EF92FF926091060170910701809185
:1026C000080190910901611571058105910521F4B9
:1026D00064E279ED8BE597E02DE133EF41E050E0E6
:1026E0000E94AB1349015A019B01AC01A7EAB1E476
:1026F0000E94CA136B017C01ACEEB4EFA5019401FA
:102700000E94D813C60ED71EE81EF91EF7FE06C09B
:1027100081E0C81AD108E10880E8F80AC0920601F1
:10272000D0920701E0920801F0920901C701B601B9
:102730009F77FF90EF90DF90CF90BF90AF909F90EA
:102740008F900895609306017093070180930801AC
:10275000909309010895052E97FB1EF400940E94A2
:10276000C21357FD07D00E94DD1307FC03D04EF4BF
:102770000C94C21350954095309521953F4F4F4F83
:102780005F4F089590958095709561957F4F8F4F1D
:102790009F4F08950E94FF13A59F900DB49F900D29
:1027A000A49F800D911D11240895B7FF0C94CA13A6
:1027B0000E94CA13821B930B0895A1E21A2EAA1B32
:1027C000BB1BFD010DC0AA1FBB1FEE1FFF1FA217E1
:1027D000B307E407F50720F0A21BB30BE40BF50BDE
:1027E000661F771F881F991F1A9469F76095709567
:1027F000809590959B01AC01BD01CF010895A29FEA
:10280000B001B39FC001A39F700D811D1124911DC4
:10281000B29F700D811D1124911D089597FB072E05
:1028200016F4009407D077FD09D00E94221407FC0B
:1028300005D03EF4909581959F4F089570956195D0
:102840007F4F0895AA1BBB1B51E107C0AA1FBB1FE6
:10285000A617B70710F0A61BB70B881F991F5A952C
:10286000A9F780959095BC01CD010895EE0FFF1F4B
:102870000590F491E02D0994F894FFCF0100050034
:10288000010001000000000000002C018C00B900D4
:102890007901EA00C800DC00613000610062006379
:1028A000006400650066006700680069006A006BEC
:1028B000006C00787830007A7A30003130003230A5
:1028C000003330003430003530003630003730000F
:1028D0003830003930003A30003B30003C300000E6
:107E0000112484B714BE81FFF0D085E080938100F7
:107E100082E08093C00088E18093C10086E0809377
:107E2000C20080E18093C4008EE0C9D0259A86E02C
:107E300020E33CEF91E0309385002093840096BBD3
:107E4000B09BFECF1D9AA8958150A9F7CC24DD24C4
:107E500088248394B5E0AB2EA1E19A2EF3E0BF2EE7
:107E6000A2D0813461F49FD0082FAFD0023811F036
:107E7000013811F484E001C083E08DD089C08234E0
:107E800011F484E103C0853419F485E0A6D080C0E4
:107E9000853579F488D0E82EFF2485D0082F10E0AE
:107EA000102F00270E291F29000F111F8ED06801E7
:107EB0006FC0863521F484E090D080E0DECF843638
:107EC00009F040C070D06FD0082F6DD080E0C81688
:107ED00080E7D80618F4F601B7BEE895C0E0D1E017
:107EE00062D089930C17E1F7F0E0CF16F0E7DF06D8
:107EF00018F0F601B7BEE89568D007B600FCFDCFD4
:107F0000A601A0E0B1E02C9130E011968C91119780
:107F100090E0982F8827822B932B1296FA010C0160
:107F200087BEE89511244E5F5F4FF1E0A038BF0790
:107F300051F7F601A7BEE89507B600FCFDCF97BE46
:107F4000E89526C08437B1F42ED02DD0F82E2BD052
:107F50003CD0F601EF2C8F010F5F1F4F84911BD097
:107F6000EA94F801C1F70894C11CD11CFA94CF0C13
:107F7000D11C0EC0853739F428D08EE10CD085E9AC
:107F80000AD08FE07ACF813511F488E018D01DD067
:107F900080E101D065CF982F8091C00085FFFCCF94
:107FA0009093C60008958091C00087FFFCCF809118
:107FB000C00084FD01C0A8958091C6000895E0E648
:107FC000F0E098E1908380830895EDDF803219F02E
:107FD00088E0F5DFFFCF84E1DECF1F93182FE3DFCA
:107FE0001150E9F7F2DF1F91089580E0E8DFEE27F6
:047FF000FF270994CA
:027FFE00040479
:00000001FF
