:100000000C9462000C948A000C948A000C948A0070
:100010000C948A000C948A000C948A000C948A0038
:100020000C948A000C948A000C948A000C948A0028
:100030000C948A000C948A000C948A000C948A0018
:100040000C9483030C948A000C940C020C94E6012B
:100050000C948A000C948A000C948A000C948A00F8
:100060000C948A000C948A000000000024002700F1
:100070002A0000000000250028002B0000000000DE
:1000800023002600290004040404040404040202DA
:100090000202020203030303030301020408102007
:1000A0004080010204081020010204081020000012
:1000B0000008000201000003040700000000000027
:1000C00000000C1711241FBECFEFD8E0DEBFCDBF5C
:1000D00011E0A0E0B1E0E8E1F0E302C005900D928C
:1000E000A038B107D9F722E0A0E8B1E001C01D9225
:1000F000AE36B207E1F710E0C2E6D0E004C02197C7
:10010000FE010E94FF17C136D107C9F70E94DF0325
:100110000C940A180C940000CF92DF92EF92FF9299
:100120000F931F93CF93DF936C017A018B01C0E093
:10013000D0E0CE15DF0589F0D8016D918D01D60193
:10014000ED91FC910190F081E02DC6010995892B7C
:1001500011F47E0102C02196ECCFC701DF91CF914F
:100160001F910F91FF90EF90DF90CF900895089529
:1001700080E090E00895FC01538D448D252F30E000
:10018000842F90E0821B930B541710F0CF960895A4
:1001900001970895FC01918D828D981761F0828DF1
:1001A000DF01A80FB11D5D968C91928D9F5F9F73AB
:1001B000928F90E008958FEF9FEF0895FC01918D4D
:1001C000828D981731F0828DE80FF11D858D90E0BA
:1001D00008958FEF9FEF0895FC01918D228D892F57
:1001E00090E0805C9F4F821B91098F73992708953F
:1001F00081ED91E00E94EC0021E0892B09F420E0E0
:10020000822F0895FC01848DDF01A80FB11DA35A30
:10021000BF4F2C91848D90E001968F739927848F26
:10022000A689B7892C93A089B1898C9180648C931D
:10023000938D848D981306C00288F389E02D808108
:100240008F7D80830895EF92FF920F931F93CF933A
:10025000DF93EC0181E0888F9B8D8C8D981305C016
:10026000E889F989808185FD24C0F62E0B8D10E088
:100270000F5F1F4F0F731127E02E8C8DE8120CC0FB
:100280000FB607FCFACFE889F989808185FFF5CFA1
:10029000CE010E940201F1CF8B8DFE01E80FF11D0E
:1002A000E35AFF4FF0820B8FEA89FB8980818062DD
:1002B00007C0EE89FF896083E889F98980818064BD
:1002C000808381E090E0DF91CF911F910F91FF90AB
:1002D000EF900895CF93DF93EC01888D8823C9F0C8
:1002E000EA89FB89808185FD05C0A889B9898C913F
:1002F00086FD0FC00FB607FCF5CF808185FFF2CFDA
:10030000A889B9898C9185FFEDCFCE010E940201A9
:10031000E7CFDF91CF91089580E090E0892B29F01D
:100320000E94F80081110C9400000895833081F040
:1003300028F4813099F08230A1F008958730A9F037
:100340008830B9F08430D1F4809180008F7D03C073
:10035000809180008F7780938000089584B58F7797
:1003600002C084B58F7D84BD08958091B0008F77E1
:1003700003C08091B0008F7D8093B00008953FB797
:10038000F8948091CD019091CE01A091CF01B091D0
:10039000D00126B5A89B05C02F3F19F00196A11DDD
:1003A000B11D3FBFBA2FA92F982F8827820F911D0B
:1003B000A11DB11DBC01CD0142E0660F771F881F52
:1003C000991F4A95D1F708950E9405181F920F9220
:1003D0000FB60F9211242F933F934F935F936F9318
:1003E0007F938F939F93AF93BF93EF93FF9381ED91
:1003F00091E00E940201FF91EF91BF91AF919F9117
:100400008F917F916F915F914F913F912F910F90BD
:100410000FBE0F901F9018951F920F920FB60F925C
:1004200011242F938F939F93EF93FF93E091E1011A
:10043000F091E2018081E091E701F091E80182FD15
:1004400012C090818091EA018F5F8F732091EB0140
:10045000821751F0E091EA01F0E0EF52FE4F958FE4
:100460008093EA0101C08081FF91EF919F918F916C
:100470002F910F900FBE0F901F901895CF93DF9381
:10048000282F30E0F901E255FF4F8491F901E6563B
:10049000FF4FD491F901EA57FF4FC491CC2391F05B
:1004A00081110E949601EC2FF0E0EE0FFF1FE4583F
:1004B000FF4FA591B491EC91ED2381E090E021F400
:1004C00080E002C080E090E0DF91CF9108951F931B
:1004D000CF93DF93282F30E0F901E255FF4F84914D
:1004E000F901E656FF4FD491F901EA57FF4FC49145
:1004F000CC23C9F0162F81110E949601EC2FF0E059
:10050000EE0FFF1FEE58FF4FA591B4918FB7F894EF
:10051000111105C09C91ED2FE095E92302C0EC91EB
:10052000ED2BEC938FBFDF91CF911F910895CF9367
:10053000DF9390E0FC01E656FF4F2491FC01EA575F
:10054000FF4F8491882361F190E0880F991FFC018F
:10055000E859FF4FC591D491FC01EE58FF4FA5918A
:10056000B491611109C09FB7F894888120958223C6
:100570008883EC912E230BC0623061F49FB7F8940E
:100580003881822F809583238883EC912E2B2C93A6
:100590009FBF06C08FB7F894E8812E2B28838FBFAA
:1005A000DF91CF9108951F93CF93DF93182FEB0125
:1005B00061E00E949702209711F460E004C0CF3FF1
:1005C000D10539F461E0812FDF91CF911F910C9417
:1005D0006702E12FF0E0E255FF4FE491E330F9F0DC
:1005E00048F4E130B9F0E230A1F584B5806284BD11
:1005F000C8BD34C0E730E9F0E83019F1E43049F51E
:1006000080918000806280938000D0938B00C093A3
:100610008A0024C084B5806884BDC7BD1FC0809196
:100620008000806880938000D0938900C093880008
:1006300015C08091B00080688093B000C093B30073
:100640000DC08091B00080628093B000C093B40070
:1006500005C0C038D1050CF0B5CFAFCFDF91CF9139
:100660001F9108958E3008F08E50877080648093BB
:100670007C0080917A00806480937A0080917A0077
:1006800086FDFCCF809178002091790090E0922B3C
:1006900008958F929F92AF92BF92CF92DF92EF9286
:1006A000FF926B017C010E94BF014B015C01C114F0
:1006B000D104E104F104F1F00E94BF01DC01CB019F
:1006C00088199909AA09BB09883E9340A105B1057B
:1006D00070F321E0C21AD108E108F10888EE880E13
:1006E00083E0981EA11CB11CC114D104E104F104E3
:1006F00019F7DDCFFF90EF90DF90CF90BF90AF90D4
:100700009F908F9008951F920F920FB60F92112411
:100710002F933F938F939F93AF93BF9380918001CB
:1007200090918101A0918201B09183013091CC011F
:1007300023E0230F2D3720F40196A11DB11D05C024
:1007400026E8230F0296A11DB11D2093CC018093B2
:10075000800190938101A0938201B09383018091E5
:10076000CD019091CE01A091CF01B091D001019621
:10077000A11DB11D8093CD019093CE01A093CF0117
:10078000B093D001BF91AF919F918F913F912F91E5
:100790000F900FBE0F901F901895009769F0FC0105
:1007A00001900020E9F73197AF01481B590BBC01BC
:1007B00081ED91E00C948C0080E090E008957894B5
:1007C00084B5826084BD84B5816084BD85B5826056
:1007D00085BD85B5816085BD80916E008160809307
:1007E0006E00109281008091810082608093810070
:1007F0008091810081608093810080918000816080
:10080000809380008091B10084608093B1008091DA
:10081000B00081608093B00080917A008460809302
:100820007A0080917A00826080937A0080917A00C9
:10083000816080937A0080917A00806880937A004A
:100840001092C100E091E101F091E20182E0808329
:10085000E091DD01F091DE011082E091DF01F09185
:10086000E0018FEC80831092E901E091E501F091C5
:10087000E60186E08083E091E301F091E40180816C
:1008800080618083E091E301F091E40180818860E0
:100890008083E091E301F091E401808180688083AE
:1008A000E091E301F091E40180818F7D808360E03D
:1008B00084E00E94970260E085E00E94970260E079
:1008C00086E00E94970260E087E00E94970260E065
:1008D00088E00E94970260E089E00E94970260E051
:1008E0008AE00E94970260E08BE00E94970260E03D
:1008F0008CE00E94970260E08DE00E94970260E029
:100900008EE00E94970260E08FE00E94970260E014
:1009100081E10E94970260E083E10E94970260E01B
:1009200084E10E94970261E083E00E94970201E067
:1009300010E089E0282E312C98E0492E512C27E038
:10094000622E712C36E0E32EF12C45E0C42ED12C22
:1009500054E0A52EB12C63E0862E912C84E00E94F9
:100960003E02892B29F41093CB010093CA0104C0E5
:100970001092CB011092CA0185E00E943E02892BA1
:1009800029F41093C9010093C80104C01092C90151
:100990001092C80186E00E943E02892B29F4109330
:1009A000C7010093C60104C01092C7011092C6018E
:1009B00087E00E943E02892B29F41093C501009321
:1009C000C40104C01092C5011092C40188E00E94C5
:1009D0003E02892B29F41093C3010093C20104C085
:1009E0001092C3011092C20189E00E943E02892B3D
:1009F00029F41093C1010093C00104C01092C101F9
:100A00001092C0018AE00E943E02892B29F41093C3
:100A1000BF010093BE0104C01092BF011092BE013D
:100A20008BE00E943E02892B29F41093BD010093B4
:100A3000BC0104C01092BD011092BC018CE00E9468
:100A40003E02892B29F41093BB010093BA0104C024
:100A50001092BB011092BA018DE00E943E02892BD8
:100A600029F41093B9010093B80104C01092B901A0
:100A70001092B8018EE00E943E02892B29F4109357
:100A8000B7010093B60104C01092B7011092B601ED
:100A90008FE00E943E02892B29F41093B501009348
:100AA000B40104C01092B5011092B401C091CA0102
:100AB000D091CB01C130D105B9F48091C60190919C
:100AC000C701019789F48091B8019091B90101970C
:100AD00059F48091B4019091B501019729F4D09314
:100AE000B301C093B20104C01092B3011092B201DD
:100AF0008091B2019091B3012091B0013091B10188
:100B00002817390789F08130910551F420910001AF
:100B1000309101012F5F3F4F30930101209300017D
:100B20009093B1018093B0018091000190910101F7
:100B3000029724F0109201011092000184E00E94BB
:100B40003E02892BC9F185E00E943E02892BA1F16A
:100B500086E00E943E02892B79F187E00E943E02E6
:100B6000892B51F188E00E943E02892B29F189E00E
:100B70000E943E02892B01F18AE00E943E02892BED
:100B8000D9F08BE00E943E02892BB1F08CE00E94EC
:100B90003E02892B89F08DE00E943E02892B61F094
:100BA0008EE00E943E02892B39F08FE00E943E02C7
:100BB000892B11F00C94EE131093AF010093AE014A
:100BC00080910001909101018130910521F5809182
:100BD000AE019091AF01019739F46AE070E080E0D6
:100BE00090E00E9449031FC080E10E9432038D32D1
:100BF0009140DCF06AE070E080E090E00E94490300
:100C000061E083E00E94670265E070E080E090E0D0
:100C10000E9449030AC0892B61F480E10E943203DB
:100C20008536910514F061E001C060E083E00E9428
:100C30006702C130D10509F052C08091C80190917E
:100C4000C901892B09F014C18091C6019091C70197
:100C5000892B09F00DC18091C4019091C501892BA8
:100C600009F006C18091C2019091C301892B09F05E
:100C7000FFC08091C0019091C101892B09F0F8C09B
:100C80008091BE019091BF01892B09F0F1C0809144
:100C9000BC019091BD01892B09F0EAC08091BA0195
:100CA0009091BB01892B09F0E3C08091B80190912C
:100CB000B901892B09F0DCC08091B6019091B70190
:100CC000892B09F0D5C08091B4019091B501892B91
:100CD00009F0CEC01093AD010093AC01C9C02097BC
:100CE00009F0C6C08091C8019091C9018130910579
:100CF00009F04DC08091C6019091C701892B09F080
:100D0000B7C08091C4019091C501892B09F0B0C092
:100D10008091C2019091C301892B09F0A9C08091F3
:100D2000C0019091C101892B09F0A2C08091BE0140
:100D30009091BF01892B09F09BC08091BC019091DB
:100D4000BD01892B09F094C08091BA019091BB013B
:100D5000892B09F08DC08091B8019091B901892B40
:100D600009F086C08091B6019091B701892B09F0F6
:100D70007FC08091B4019091B501892B09F078C0B2
:100D800082E090E09093AD018093AC0171C0892B1B
:100D900009F06EC08091C6019091C7018130910524
:100DA00011F40C94F413009749F42091C40130918C
:100DB000C5012130310511F40C944214009741F41F
:100DC0002091C4013091C501232B11F40C94881497
:100DD000009741F42091C4013091C501232B11F4F7
:100DE0000C94CF14009741F42091C4013091C501B7
:100DF000232B11F40C941615009741F42091C40193
:100E00003091C501232B11F40C945D15009741F42A
:100E10002091C4013091C501232B11F40C94A41529
:100E2000009741F42091C4013091C501232B11F4A6
:100E30000C94EB15009741F42091C4013091C50149
:100E4000232B11F40C943416009741F42091C40123
:100E50003091C501232B11F40C947D16892B41F49C
:100E60008091C4019091C501892B11F40C94C61690
:100E70008091AC019091AD019093AB018093AA0158
:100E80008130910571F42091C8013091C901213060
:100E9000310591F422E030E03093AB012093AA01B8
:100EA0000BC08230910509F07DC0C130D10521F41D
:100EB000D093AB01C093AA012091C6013091C70124
:100EC0002130310521F49092AB018092AA0120914A
:100ED000C4013091C5012130310521F4B092AB013C
:100EE000A092AA012091C2013091C30121303105A5
:100EF00021F4D092AB01C092AA012091C00130919F
:100F0000C1012130310521F4F092AB01E092AA0138
:100F10002091BE013091BF012130310521F4709242
:100F2000AB016092AA012091BC013091BD0121303A
:100F3000310521F45092AB014092AA012091BA01EF
:100F40003091BB012130310521F43092AB01209268
:100F5000AA012091B8013091B9012130310531F455
:100F60002AE030E03093AB012093AA012091B60132
:100F70003091B7012130310531F42BE030E030936E
:100F8000AB012093AA012091B4013091B501213029
:100F9000310509F090C12CE030E03093AB01209393
:100FA000AA0189C18330910509F07FC0C130D10504
:100FB00021F4D093AB01C093AA012091C8013091D4
:100FC000C9012130310531F422E030E03093AB012A
:100FD0002093AA012091C4013091C501213031052F
:100FE00021F4B092AB01A092AA012091C2013091EC
:100FF000C3012130310521F4D092AB01C092AA0186
:101000002091C0013091C1012130310521F4F092CD
:10101000AB01E092AA012091BE013091BF012130C5
:10102000310521F47092AB016092AA012091BC01BC
:101030003091BD012130310521F45092AB01409235
:10104000AA012091BA013091BB012130310521F470
:101050003092AB012092AA012091B8013091B901E0
:101060002130310531F42AE030E03093AB01209398
:10107000AA012091B6013091B7012130310531F438
:101080002BE030E03093AB012093AA012091B40112
:101090003091B5012130310509F090C12CE030E0EC
:1010A0003093AB012093AA0189C18430910509F0E6
:1010B0007FC0C130D10521F4D093AB01C093AA0108
:1010C0002091C6013091C7012130310521F4909261
:1010D000AB018092AA012091C8013091C901213051
:1010E000310531F422E030E03093AB012093AA01C6
:1010F0002091C2013091C3012130310521F4D092F9
:10110000AB01C092AA012091C0013091C1012130F0
:10111000310521F4F092AB01E092AA012091BE01C9
:101120003091BF012130310521F47092AB01609202
:10113000AA012091BC013091BD012130310521F47B
:101140005092AB014092AA012091BA013091BB01AB
:101150002130310521F43092AB012092AA01209177
:10116000B8013091B9012130310531F42AE030E085
:101170003093AB012093AA012091B6013091B701C1
:101180002130310531F42BE030E03093AB01209376
:10119000AA012091B4013091B5012130310509F047
:1011A00090C12CE030E03093AB012093AA0189C1BB
:1011B0008530910509F07FC0C130D10521F4D0936D
:1011C000AB01C093AA012091C6013091C701213023
:1011D000310521F49092AB018092AA012091C401C3
:1011E0003091C5012130310521F4B092AB01A092BC
:1011F000AA012091C8013091C9012130310531F493
:1012000022E030E03093AB012093AA012091C0018D
:101210003091C1012130310521F4F092AB01E0920F
:10122000AA012091BE013091BF012130310521F486
:101230007092AB016092AA012091BC013091BD0176
:101240002130310521F45092AB014092AA01209146
:10125000BA013091BB012130310521F43092AB014C
:101260002092AA012091B8013091B90121303105B5
:1012700031F42AE030E03093AB012093AA012091B1
:10128000B6013091B7012130310531F42BE030E067
:101290003093AB012093AA012091B4013091B501A4
:1012A0002130310509F0E3C12CE030E03093AB018F
:1012B0002093AA01DCC18630910509F07FC0C130BE
:1012C000D10521F4D093AB01C093AA012091C601AE
:1012D0003091C7012130310521F49092AB01809209
:1012E000AA012091C4013091C5012130310521F4BA
:1012F000B092AB01A092AA012091C2013091C3012A
:101300002130310521F4D092AB01C092AA01209185
:10131000C8013091C9012130310531F422E030E0BB
:101320003093AB012093AA012091BE013091BF01FF
:101330002130310521F47092AB016092AA01209115
:10134000BC013091BD012130310521F45092AB0137
:101350004092AA012091BA013091BB0121303105A0
:1013600021F43092AB012092AA012091B801309172
:10137000B9012130310531F42AE030E03093AB017E
:101380002093AA012091B6013091B7012130310597
:1013900031F42BE030E03093AB012093AA0120918F
:1013A000B4013091B5012130310509F0D7C12CE0ED
:1013B00030E03093AB012093AA01D0C18730910572
:1013C00009F07FC0C130D10521F4D093AB01C093A7
:1013D000AA012091C6013091C7012130310521F4C5
:1013E0009092AB018092AA012091C4013091C50175
:1013F0002130310521F4B092AB01A092AA012091D5
:10140000C2013091C3012130310521F4D092AB01EA
:10141000C092AA012091C0013091C1012130310553
:1014200021F4F092AB01E092AA012091C801309121
:10143000C9012130310531F422E030E03093AB01B5
:101440002093AA012091BC013091BD0121303105CA
:1014500021F45092AB014092AA012091BA0130913F
:10146000BB012130310521F43092AB012092AA0159
:101470002091B8013091B9012130310531F42AE0D1
:1014800030E03093AB012093AA012091B601309156
:10149000B7012130310531F42BE030E03093AB015E
:1014A0002093AA012091B4013091B501213031057A
:1014B00009F0BBC12CE030E03093AB012093AA01CE
:1014C000B4C18830910509F071C0C130D10521F453
:1014D000D093AB01C093AA018091C6019091C7013E
:1014E000019721F49092AB018092AA018091C401EE
:1014F0009091C501019721F4B092AB01A092AA018D
:101500008091C2019091C301019721F4D092AB0167
:10151000C092AA018091C0019091C101019721F46C
:10152000F092AB01E092AA018091BE019091BF01BF
:10153000019721F47092AB016092AA018091C801D9
:101540009091C901019731F482E090E09093AB0152
:101550008093AA018091BA019091BB01019721F477
:101560003092AB012092AA018091B8019091B9010B
:10157000019731F48AE090E09093AB018093AA0147
:101580008091B6019091B701019731F42BE030E0E2
:101590003093AB012093AA018091B4019091B501E1
:1015A000019709F0B6C18CE090E0AFC18930910598
:1015B00009F05DC0C130D10521F4D093AB01C093D7
:1015C000AA018091C6019091C701019721F49092E0
:1015D000AB018092AA018091C4019091C50101974D
:1015E00021F4B092AB01A092AA018091C201909126
:1015F000C301019721F4D092AB01C092AA0180915E
:10160000C0019091C101019721F4F092AB01E092E9
:10161000AA018091BE019091BF01019721F47092BF
:10162000AB016092AA018091BC019091BD0101972C
:1016300021F45092AB014092AA018091C80190918F
:10164000C901019731F482E090E09093AB0180935F
:10165000AA018091B8019091B901019709F064C085
:101660002AE030E03093AB012093AA015DC08A30BC
:10167000910509F073C0C130D10521F4D093AB01BD
:10168000C093AA018091C6019091C701019721F4EE
:101690009092AB018092AA018091C4019091C50102
:1016A000019721F4B092AB01A092AA018091C201EE
:1016B0009091C301019721F4D092AB01C092AA018D
:1016C0008091C0019091C101019721F4F092AB018A
:1016D000E092AA018091BE019091BF01019721F48F
:1016E0007092AB016092AA018091BC019091BD0102
:1016F000019721F45092AB014092AA018091BA0166
:101700009091BB01019721F43092AB012092AA0184
:101710008091C8019091C901019731F482E090E075
:101720009093AB018093AA018091B6019091B7018B
:10173000019731F48BE090E09093AB018093AA0184
:101740008091B4019091B501019709F0E2C02CE0BD
:1017500030E03093AB012093AA01DBC08B309105C0
:1017600009F063C0C130D10521F4D093AB01C0931F
:10177000AA018091C6019091C701019721F490922E
:10178000AB018092AA018091C4019091C50101979B
:1017900021F4B092AB01A092AA018091C201909174
:1017A000C301019721F4D092AB01C092AA018091AC
:1017B000C0019091C101019721F4F092AB01E09238
:1017C000AA018091BE019091BF01019721F470920E
:1017D000AB016092AA018091BC019091BD0101977B
:1017E00021F45092AB014092AA018091BA019091EC
:1017F000BB01019721F43092AB012092AA018091A4
:10180000B8019091B901019731F48AE090E090938A
:10181000AB018093AA018091C8019091C901019701
:1018200009F08ECF82E090E087CF0C9709F071C06D
:10183000C130D10521F4D093AB01C093AA018091AE
:10184000C6019091C701019721F49092AB0180925B
:10185000AA018091C4019091C501019721F4B09231
:10186000AB01A092AA018091C2019091C30101979E
:1018700021F4D092AB01C092AA018091C001909155
:10188000C101019721F4F092AB01E092AA0180918D
:10189000BE019091BF01019721F47092AB0160925B
:1018A000AA018091BC019091BD01019721F4509251
:1018B000AB014092AA018091BA019091BB010197BE
:1018C00021F43092AB012092AA018091B80190914D
:1018D000B901019731F42AE030E03093AB01209355
:1018E000AA018091B6019091B701019731F48BE084
:1018F00090E09093AB018093AA018091C8019091F0
:10190000C901019731F482E090E09093AB0180939C
:10191000AA0184E10E9432032BE030E0DC010E9446
:10192000F8172CEB32E040E050E00E949517DA0106
:10193000C9010196A11DB11D9093A9018093A80131
:1019400084E10E9432038D3B924034F08CE090E0C1
:101950009093A9018093A80184E10E943203039728
:101960002CF01093A7010093A60104C01092A701C8
:101970001092A6018091AE019091AF01892B09F0E0
:1019800047C38091A6019091A7012091A4013091B5
:10199000A5012817390709F4ADC1009741F488E182
:1019A00091E00E94CD038091A6019091A7019093B0
:1019B000A5018093A4018091A6019091A7010197B0
:1019C00009F098C18091A8019091A9010197E1F4D3
:1019D00088E191E00E94CD036FEF73E083E00E9405
:1019E000D30262E070E080E090E00E94490360E092
:1019F00070E083E00E94D3028091A6019091A7013C
:101A00009093A5018093A4018091A8019091A901D0
:101A10000297E1F48BE191E00E94CD036FEF73E058
:101A200083E00E94D30262E070E080E090E00E94D8
:101A3000490360E070E083E00E94D3028091A60138
:101A40009091A7019093A5018093A4018091A80192
:101A50009091A9010397E1F48EE191E00E94CD03FA
:101A60006FEF73E083E00E94D30262E070E080E0F9
:101A700090E00E94490360E070E083E00E94D3029E
:101A80008091A6019091A7019093A5018093A40154
:101A90008091A8019091A9010497E1F481E291E07D
:101AA0000E94CD036FEF73E083E00E94D30262E0F7
:101AB00070E080E090E00E94490360E070E083E025
:101AC0000E94D3028091A6019091A7019093A50155
:101AD0008093A4018091A8019091A9010597E1F458
:101AE00084E291E00E94CD036FEF73E083E00E94F7
:101AF000D30262E070E080E090E00E94490360E081
:101B000070E083E00E94D3028091A6019091A7012A
:101B10009093A5018093A4018091A8019091A901BF
:101B20000697E1F487E291E00E94CD036FEF73E046
:101B300083E00E94D30262E070E080E090E00E94C7
:101B4000490360E070E083E00E94D3028091A60127
:101B50009091A7019093A5018093A4018091A80181
:101B60009091A9010797E1F48AE291E00E94CD03E8
:101B70006FEF73E083E00E94D30262E070E080E0E8
:101B800090E00E94490360E070E083E00E94D3028D
:101B90008091A6019091A7019093A5018093A40143
:101BA0008091A8019091A9010897E1F48DE291E05C
:101BB0000E94CD036FEF73E083E00E94D30262E0E6
:101BC00070E080E090E00E94490360E070E083E014
:101BD0000E94D3028091A6019091A7019093A50144
:101BE0008093A4018091A8019091A9010997E1F443
:101BF00080E391E00E94CD036FEF73E083E00E94E9
:101C0000D30262E070E080E090E00E94490360E06F
:101C100070E083E00E94D3028091A6019091A70119
:101C20009093A5018093A4018091A8019091A901AE
:101C30000A97E1F483E391E00E94CD036FEF73E034
:101C400083E00E94D30262E070E080E090E00E94B6
:101C5000490360E070E083E00E94D3028091A60116
:101C60009091A7019093A5018093A4018091A80170
:101C70009091A9010B97E1F486E391E00E94CD03D6
:101C80006FEF73E083E00E94D30262E070E080E0D7
:101C900090E00E94490360E070E083E00E94D3027C
:101CA0008091A6019091A7019093A5018093A40132
:101CB0008091A8019091A9010C97E1F489E391E04A
:101CC0000E94CD036FEF73E083E00E94D30262E0D5
:101CD00070E080E090E00E94490360E070E083E003
:101CE0000E94D3028091A6019091A7019093A50133
:101CF0008093A40184E10E94320303970CF488C10D
:101D00008091A8019091A9012091A2013091A30195
:101D10002817390709F47CC10197D1F488E191E0D3
:101D20000E94CD0361E083E00E94670262E070E000
:101D300080E090E00E94490360E083E00E94670237
:101D40008091A8019091A9019093A3018093A20191
:101D50008091A8019091A9010297D1F48BE191E0C3
:101D60000E94CD0361E083E00E94670262E070E0C0
:101D700080E090E00E94490360E083E00E946702F7
:101D80008091A8019091A9019093A3018093A20151
:101D90008091A8019091A9010397D1F48EE191E07F
:101DA0000E94CD0361E083E00E94670262E070E080
:101DB00080E090E00E94490360E083E00E946702B7
:101DC0008091A8019091A9019093A3018093A20111
:101DD0008091A8019091A9010497D1F481E291E04A
:101DE0000E94CD0361E083E00E94670262E070E040
:101DF00080E090E00E94490360E083E00E94670277
:101E00008091A8019091A9019093A3018093A201D0
:101E10008091A8019091A9010597D1F484E291E005
:101E20000E94CD0361E083E00E94670262E070E0FF
:101E300080E090E00E94490360E083E00E94670236
:101E40008091A8019091A9019093A3018093A20190
:101E50008091A8019091A9010697D1F487E291E0C1
:101E60000E94CD0361E083E00E94670262E070E0BF
:101E700080E090E00E94490360E083E00E946702F6
:101E80008091A8019091A9019093A3018093A20150
:101E90008091A8019091A9010797D1F48AE291E07D
:101EA0000E94CD0361E083E00E94670262E070E07F
:101EB00080E090E00E94490360E083E00E946702B6
:101EC0008091A8019091A9019093A3018093A20110
:101ED0008091A8019091A9010897D1F48DE291E039
:101EE0000E94CD0361E083E00E94670262E070E03F
:101EF00080E090E00E94490360E083E00E94670276
:101F00008091A8019091A9019093A3018093A201CF
:101F10008091A8019091A9010997D1F480E391E003
:101F20000E94CD0361E083E00E94670262E070E0FE
:101F300080E090E00E94490360E083E00E94670235
:101F40008091A8019091A9019093A3018093A2018F
:101F50008091A8019091A9010A97D1F483E391E0BF
:101F60000E94CD0361E083E00E94670262E070E0BE
:101F700080E090E00E94490360E083E00E946702F5
:101F80008091A8019091A9019093A3018093A2014F
:101F90008091A8019091A9010B97D1F486E391E07B
:101FA0000E94CD0361E083E00E94670262E070E07E
:101FB00080E090E00E94490360E083E00E946702B5
:101FC0008091A8019091A9019093A3018093A2010F
:101FD0008091A8019091A9010C97D1F489E391E037
:101FE0000E94CD0361E083E00E94670262E070E03E
:101FF00080E090E00E94490360E083E00E94670275
:102000008091A8019091A9019093A3018093A201CE
:102010008091AA019091AB012091A0013091A10182
:102020002817390709F41CC1019791F48CE391E05A
:102030000E94CD038091AA019091AB019093A101E0
:102040008093A00164E170E080E090E00E94490389
:102050008091AA019091AB01029791F48EE391E0F7
:102060000E94CD038091AA019091AB019093A101B0
:102070008093A00164E170E080E090E00E94490359
:102080008091AA019091AB01039791F480E491E0D3
:102090000E94CD038091AA019091AB019093A10180
:1020A0008093A00164E170E080E090E00E94490329
:1020B0008091AA019091AB01049791F482E491E0A0
:1020C0000E94CD038091AA019091AB019093A10150
:1020D0008093A00164E170E080E090E00E944903F9
:1020E0008091AA019091AB01059791F484E491E06D
:1020F0000E94CD038091AA019091AB019093A10120
:102100008093A00164E170E080E090E00E944903C8
:102110008091AA019091AB01069791F486E491E039
:102120000E94CD038091AA019091AB019093A101EF
:102130008093A00164E170E080E090E00E94490398
:102140008091AA019091AB01079791F488E491E006
:102150000E94CD038091AA019091AB019093A101BF
:102160008093A00164E170E080E090E00E94490368
:102170008091AA019091AB01089791F48AE491E0D3
:102180000E94CD038091AA019091AB019093A1018F
:102190008093A00164E170E080E090E00E94490338
:1021A0008091AA019091AB01099791F48CE491E0A0
:1021B0000E94CD038091AA019091AB019093A1015F
:1021C0008093A00164E170E080E090E00E94490308
:1021D0008091AA019091AB010A9791F48EE491E06D
:1021E0000E94CD038091AA019091AB019093A1012F
:1021F0008093A00164E170E080E090E00E944903D8
:102200008091AA019091AB010B9791F480E591E048
:102210000E94CD038091AA019091AB019093A101FE
:102220008093A00164E170E080E090E00E944903A7
:102230008091AA019091AB010C9791F482E591E015
:102240000E94CD038091AA019091AB019093A101CE
:102250008093A00164E170E080E090E00E94490377
:102260008091CA019091CB0190939F0180939E0130
:102270008091AE019091AF0120919C0130919D0120
:102280002817390709F10097D9F48DE591E00E94EC
:10229000CD038091AE019091AF0190939D01809309
:1022A0009C011092AB011092AA011092A101109210
:1022B000A00164E170E080E090E00E94490304C066
:1022C00090939D0180939C0185E10E943203892BAC
:1022D00021F410939B0100939A0185E10E9432033F
:1022E0001816190624F410929B0110929A012FB728
:1022F000F8948091800190918101A0918201B09128
:1023000083012FBF409196015091970160919801F0
:1023100070919901841B950BA60BB70BC397A10570
:10232000B105A0F180919A0190919B0120919401B7
:10233000309195012817390749F18130910511F540
:1023400020919201309193012F5F3F4F3093930181
:102350002093920190939501809394012FB7F89464
:102360008091800190918101A0918201B0918301BF
:102370002FBF8093960190939701A0939801B093FB
:10238000990104C0909395018093940180919401E8
:102390009091950120919A0130919B0182179307AA
:1023A000A9F4019799F42FB7F89480918001909146
:1023B0008101A0918201B09183012FBF809396018A
:1023C00090939701A0939801B09399018091920105
:1023D00090919301029724F0109293011092920130
:1023E00081E10E9432038130924024F010939101E8
:1023F0000093900181E10E9432038130924024F4E5
:102400001092910110929001809190019091910110
:1024100020918E0130918F012817390789F0813082
:10242000910571F420919201309193012F5F3F4FFC
:10243000309393012093920190938F0180938E01AA
:1024400083E10E9432038C3092402CF010938D0176
:1024500000938C0104C010928D0110928C01809128
:102460008C0190918D0120918A0130918B01281768
:10247000390791F18130910559F50E9487172CE0B9
:1024800030E040E050E00E949517DC01CB0101965E
:10249000A11DB11D909389018093880164E170E0D2
:1024A00080E090E00E9449036FEF73E083E00E94B8
:1024B000D30265E070E080E090E00E94490360E0B4
:1024C00070E083E00E94D30280918C0190918D0195
:1024D00090938B0180938A018091AE019091AF011E
:1024E000892B09F05FC18091920190919301209115
:1024F0008601309187012817390761F1892B91F402
:1025000084E591E00E94CD03809192019091930126
:10251000909387018093860164E170E080E090E011
:102520000E9449038091920190919301019791F447
:1025300088E591E00E94CD038091920190919301F2
:10254000909387018093860164E170E080E090E0E1
:102550000E94490380918801909189012091840112
:10256000309185012817390709F41CC1019791F4AE
:102570008CE591E00E94CD038091880190918901C2
:10258000909385018093840164E170E080E090E0A5
:102590000E9449038091880190918901029791F4EA
:1025A0008FE591E00E94CD0380918801909189018F
:1025B000909385018093840164E170E080E090E075
:1025C0000E9449038091880190918901039791F4B9
:1025D00082E691E00E94CD0380918801909189016B
:1025E000909385018093840164E170E080E090E045
:1025F0000E9449038091880190918901049791F488
:1026000085E691E00E94CD03809188019091890137
:10261000909385018093840164E170E080E090E014
:102620000E9449038091880190918901059791F456
:1026300088E691E00E94CD03809188019091890104
:10264000909385018093840164E170E080E090E0E4
:102650000E9449038091880190918901069791F425
:102660008BE691E00E94CD038091880190918901D1
:10267000909385018093840164E170E080E090E0B4
:102680000E9449038091880190918901079791F4F4
:102690008EE691E00E94CD0380918801909189019E
:1026A000909385018093840164E170E080E090E084
:1026B0000E9449038091880190918901089791F4C3
:1026C00081E791E00E94CD0380918801909189017A
:1026D000909385018093840164E170E080E090E054
:1026E0000E9449038091880190918901099791F492
:1026F00084E791E00E94CD03809188019091890147
:10270000909385018093840164E170E080E090E023
:102710000E94490380918801909189010A9791F460
:1027200087E791E00E94CD03809188019091890113
:10273000909385018093840164E170E080E090E0F3
:102740000E94490380918801909189010B9791F42F
:102750008AE791E00E94CD038091880190918901E0
:10276000909385018093840164E170E080E090E0C3
:102770000E94490380918801909189010C9791F4FE
:102780008DE791E00E94CD038091880190918901AD
:10279000909385018093840164E170E080E090E093
:1027A0000E944903809190019091910190938F0133
:1027B00080938E0180918C0190918D0190938B017B
:1027C00080938A0180919A0190919B019093950149
:1027D000809394010E948C010C94AE041092AF017E
:1027E0001092AE010C94E0052091C4013091C50116
:1027F000232B11F00C94D3062091C2013091C30118
:10280000232B11F00C94D3062091C0013091C1010B
:10281000232B11F00C94D3062091BE013091BF01FF
:10282000232B11F00C94D3062091BC013091BD01F3
:10283000232B11F00C94D3062091BA013091BB01E7
:10284000232B11F00C94D3062091B8013091B901DB
:10285000232B11F00C94D3062091B6013091B701CF
:10286000232B11F00C94D3062091B4013091B501C3
:10287000232B11F00C94D3069092AD018092AC0101
:102880000C94D3062091C2013091C301232B11F087
:102890000C94DE062091C0013091C101232B11F070
:1028A0000C94DE062091BE013091BF01232B11F064
:1028B0000C94DE062091BC013091BD01232B11F058
:1028C0000C94DE062091BA013091BB01232B11F04C
:1028D0000C94DE062091B8013091B901232B11F040
:1028E0000C94DE062091B6013091B701232B11F034
:1028F0000C94DE062091B4013091B501232B11F028
:102900000C94DE06B092AD01A092AC010C94DE06F0
:102910002091C2013091C3012130310511F00C9496
:10292000E8062091C0013091C101232B11F00C94D5
:10293000E8062091BE013091BF01232B11F00C94C9
:10294000E8062091BC013091BD01232B11F00C94BD
:10295000E8062091BA013091BB01232B11F00C94B1
:10296000E8062091B8013091B901232B11F00C94A5
:10297000E8062091B6013091B701232B11F00C9499
:10298000E8062091B4013091B501232B11F00C948D
:10299000E806D092AD01C092AC010C94E8062091FB
:1029A000C2013091C301232B11F00C94F206209147
:1029B000C0013091C1012130310511F00C94F206B3
:1029C0002091BE013091BF01232B11F00C94F2062F
:1029D0002091BC013091BD01232B11F00C94F20623
:1029E0002091BA013091BB01232B11F00C94F20617
:1029F0002091B8013091B901232B11F00C94F2060B
:102A00002091B6013091B701232B11F00C94F206FE
:102A10002091B4013091B501232B11F00C94F206F2
:102A2000F092AD01E092AC010C94F2062091C2014B
:102A30003091C301232B11F00C94FC062091C001AE
:102A40003091C101232B11F00C94FC062091BE01A2
:102A50003091BF012130310511F00C94FC0620911A
:102A6000BC013091BD01232B11F00C94FC06209188
:102A7000BA013091BB01232B11F00C94FC0620917C
:102A8000B8013091B901232B11F00C94FC06209170
:102A9000B6013091B701232B11F00C94FC06209164
:102AA000B4013091B501232B11F00C94FC06709207
:102AB000AD016092AC010C94FC062091C2013091F2
:102AC000C301232B11F00C9406072091C001309113
:102AD000C101232B11F00C9406072091BE01309107
:102AE000BF01232B11F00C9406072091BC013091FB
:102AF000BD012130310511F00C9406072091BA0177
:102B00003091BB01232B11F00C9406072091B801E2
:102B10003091B901232B11F00C9406072091B601D6
:102B20003091B701232B11F00C9406072091B401CA
:102B30003091B501232B11F00C9406075092AD0192
:102B40004092AC010C9406072091C2013091C30160
:102B5000232B11F00C9410072091C0013091C1017A
:102B6000232B11F00C9410072091BE013091BF016E
:102B7000232B11F00C9410072091BC013091BD0162
:102B8000232B11F00C9410072091BA013091BB0156
:102B90002130310511F00C9410072091B8013091CB
:102BA000B901232B11F00C9410072091B60130913C
:102BB000B701232B11F00C9410072091B401309130
:102BC000B501232B11F00C9410073092AD01209227
:102BD000AC010C9410072091C2013091C301232B4A
:102BE00011F00C941A072091C0013091C101232BE0
:102BF00011F00C941A072091BE013091BF01232BD4
:102C000011F00C941A072091BC013091BD01232BC7
:102C100011F00C941A072091BA013091BB01232BBB
:102C200011F00C941A072091B8013091B9012130AC
:102C3000310511F00C941A072091B6013091B701BB
:102C4000232B11F00C941A072091B4013091B50197
:102C5000232B11F00C941A072AE030E03093AD01D9
:102C60002093AC010C941A072091C2013091C3014A
:102C7000232B11F00C9424072091C0013091C10145
:102C8000232B11F00C9424072091BE013091BF0139
:102C9000232B11F00C9424072091BC013091BD012D
:102CA000232B11F00C9424072091BA013091BB0121
:102CB000232B11F00C9424072091B8013091B90115
:102CC000232B11F00C9424072091B6013091B70109
:102CD0002130310511F00C9424072091B40130917A
:102CE000B501232B11F00C9424072BE030E0309336
:102CF000AD012093AC010C9424072091C2013091C6
:102D0000C301232B11F00C942E072091C0013091A8
:102D1000C101232B11F00C942E072091BE0130919C
:102D2000BF01232B11F00C942E072091BC01309190
:102D3000BD01232B11F00C942E072091BA01309184
:102D4000BB01232B11F00C942E072091B801309178
:102D5000B901232B11F00C942E072091B60130916C
:102D6000B701232B11F00C942E072091B401309160
:102D7000B5012130310511F00C942E072CE030E024
:102D80003093AD012093AC010C942E078091C201C9
:102D90009091C301892B11F00C9438078091C001E8
:102DA0009091C101892B11F00C9438078091BE01DC
:102DB0009091BF01892B11F00C9438078091BC01D0
:102DC0009091BD01892B11F00C9438078091BA01C4
:102DD0009091BB01892B11F00C9438078091B801B8
:102DE0009091B901892B11F00C9438078091B601AC
:102DF0009091B701892B11F00C9438078091B401A0
:102E00009091B501892B11F00C9438071092AD0107
:102E10001092AC010C943807E1EDF1E013821282BC
:102E200088EE93E0A0E0B0E084839583A683B78327
:102E30008AE091E09183808385EC90E09587848798
:102E400084EC90E09787868780EC90E0918B808B74
:102E500081EC90E0938B828B82EC90E0958B848B5D
:102E600086EC90E0978B868B118E128E138E148ECB
:102E700008958F929F92AF92BF92CF92DF92EF927E
:102E8000FF92CF93DF93EC01688179818A819B81E6
:102E9000611571058105910521F464E279ED8BE5F9
:102EA00097E02DE133EF41E050E00E949517490192
:102EB0005A019B01AC01A7EAB1E40E94B4176B016F
:102EC0007C01ACEEB4EFA50194010E94C217DC01B5
:102ED000CB018C0D9D1DAE1DBF1DB7FF03C001971B
:102EE000A109B04888839983AA83BB83BC01CD0123
:102EF0009F77DF91CF91FF90EF90DF90CF90BF90C1
:102F0000AF909F908F9008950E943917089582E0A6
:102F100091E00E94391708956093020170930301B4
:102F200080930401909305010895052E97FB1EF4EC
:102F300000940E94AC1757FD07D00E94C71707FCEA
:102F400003D04EF40C94AC175095409530952195D4
:102F50003F4F4F4F5F4F08959095809570956195C5
:102F60007F4F8F4F9F4F08950E94E917A59F900DA7
:102F7000B49F900DA49F800D911D11240895B7FF5B
:102F80000C94B4170E94B417821B930B0895A1E20E
:102F90001A2EAA1BBB1BFD010DC0AA1FBB1FEE1FD3
:102FA000FF1FA217B307E407F50720F0A21BB30B1E
:102FB000E40BF50B661F771F881F991F1A9469F79A
:102FC00060957095809590959B01AC01BD01CF01F6
:102FD0000895A29FB001B39FC001A39F700D811DF2
:102FE0001124911DB29F700D811D1124911D089512
:102FF0000E94E917B7FF0895821B930B0895EE0F07
:10300000FF1F0590F491E02D099481E090E0F89481
:083010000C940A18F894FFCF9C
:103018000100010000000000000023018C00BB003B
:103028006A01EC00CA00DE006130006230006330E3
:10303800006430006530006630006730006830009A
:103048006930006A30006B30006C3000610062004B
:1030580063006400650066006700680069006A0034
:103068006B006C00787830007A7A300031300032AA
:10307800300033300034300035300036300037301F
:10308800003830003930003A30003B30003C300026
:107800000C94343C0C94513C0C94513C0C94513CE1
:107810000C94513C0C94513C0C94513C0C94513CB4
:107820000C94513C0C94513C0C94513C0C94513CA4
:107830000C94513C0C94513C0C94513C0C94513C94
:107840000C94513C0C94513C0C94513C0C94513C84
:107850000C94513C0C94513C0C94513C0C94513C74
:107860000C94513C0C94513C11241FBECFEFD8E036
:10787000DEBFCDBF11E0A0E0B1E0ECE9FFE702C060
:1078800005900D92A230B107D9F712E0A2E0B1E065
:1078900001C01D92AD30B107E1F70E942D3D0C945F
:1078A000CC3F0C94003C982F959595959595959582
:1078B000905D8F708A307CF0282F295A8091C0000B
:1078C00085FFFCCF9093C6008091C00085FFFCCF60
:1078D0002093C6000895282F205DF0CF982F809127
:1078E000C00085FFFCCF9093C6000895EF92FF92F1
:1078F0000F931F93EE24FF2487018091C00087FD22
:1079000017C00894E11CF11C011D111D81E4E8164B
:1079100082E4F8068FE0080780E0180770F3E09132
:107920000401F091050109958091C00087FFE9CF1E
:107930008091C6001F910F91FF90EF9008950E94D3
:10794000763C982F8091C00085FFFCCF9093C600B5
:1079500091362CF490330CF09053892F089597555D
:10796000892F08951F930E949F3C182F0E949F3CCF
:107970001295107F810F1F9108951F93182F882350
:1079800021F00E94763C1150E1F71F9108951F935A
:10799000182F0E94763C803249F0809103018F5F5E
:1079A000809303018530C1F01F9108958091C0003C
:1079B00085FFFCCF84E18093C6008091C00085FFE5
:1079C000FCCF1093C6008091C00085FFFCCF80E102
:1079D0008093C6001F910895E0910401F091050184
:1079E00009951F9108950E94763C803241F0809164
:1079F00003018F5F80930301853081F008958091AA
:107A0000C00085FFFCCF84E18093C6008091C00058
:107A100085FFFCCF80E18093C6000895E0910401CA
:107A2000F09105010995089540E951E08823A1F0FE
:107A30002D9A28EE33E0FA013197F1F721503040CA
:107A4000D1F72D9828EE33E0FA013197F1F7215064
:107A50003040D1F7815061F708953F924F925F9285
:107A60006F927F928F929F92AF92BF92CF92DF924E
:107A7000EF92FF920F931F93CF93DF93000080E16B
:107A80008093C4001092C50088E18093C10086E015
:107A90008093C2005098589A259A81E00E94143D24
:107AA00024E1F22E9EE1E92E85E9D82E0FE0C02ECA
:107AB00010E1B12EAA24A394B1E49B2EA6E58A2E50
:107AC000F2E57F2EE0E26E2E79E4572E63E5462E36
:107AD00050E5352E0E94763C8033B1F18133B9F107
:107AE000803409F46FC0813409F476C0823409F41B
:107AF00085C0853409F488C0803531F1823521F1A3
:107B0000813511F1853509F485C0863509F48DC0BC
:107B1000843609F496C0843709F403C1853709F423
:107B200072C1863709F466C0809103018F5F80932C
:107B30000301853079F6E0910401F0910501099582
:107B40000E94763C803351F60E94F33CC3CF0E94E2
:107B5000763C803249F78091C00085FFFCCFF092DF
:107B6000C6008091C00085FFFCCF9092C600809136
:107B7000C00085FFFCCF8092C6008091C00085FFC9
:107B8000FCCF7092C6008091C00085FFFCCF609250
:107B9000C6008091C00085FFFCCF5092C600809146
:107BA000C00085FFFCCF4092C6008091C00085FFD9
:107BB000FCCF3092C6008091C00085FFFCCFB09210
:107BC000C60088CF0E94763C863808F4BDCF0E945C
:107BD000763C0E94F33C7ECF0E94763C803809F4CC
:107BE0009CC0813809F40BC1823809F43CC1883942
:107BF00009F48FC080E00E94C73C6CCF84E10E94F2
:107C0000BD3C0E94F33C66CF85E00E94BD3C0E94D3
:107C1000F33C60CF0E94763C809306010E94763C44
:107C2000809307010E94F33C55CF0E94763C80333D
:107C300009F41DC183E00E94BD3C80E00E94C73C66
:107C400049CF0E94763C809309020E94763C809343
:107C5000080280910C028E7F80930C020E94763C79
:107C6000853409F415C18091080290910902892B8D
:107C700089F000E010E00E94763CF801E85FFE4FDA
:107C800080830F5F1F4F80910802909109020817AF
:107C9000190788F30E94763C803209F045CF809125
:107CA0000C0280FF01C16091060170910701660F0F
:107CB000771F7093070160930601A0910802B091AD
:107CC00009021097C9F0E8E0F1E09B01AD014E0F09
:107CD0005F1FF999FECF32BD21BD819180BDFA9A17
:107CE000F99A2F5F3F4FE417F50799F76A0F7B1F4B
:107CF00070930701609306018091C00085FFFCCF5F
:107D0000F092C6008091C00085FFFCCFB092C60003
:107D1000E1CE83E00E94C73CDDCE82E00E94C73CFA
:107D2000D9CE0E94763C809309020E94763C8093D3
:107D300008028091060190910701880F991F909386
:107D40000701809306010E94763C853409F4A6C0A1
:107D500080910C028E7F80930C020E94763C8032D0
:107D600009F0B8CE8091C00085FFFCCFF092C6002C
:107D7000609108027091090261157105B9F140E046
:107D800050E080910C02A82FA170B82FB27011C0E2
:107D9000BB2309F45CC0E0910601F0910701319624
:107DA000F0930701E09306014F5F5F4F46175707B7
:107DB000E8F4AA2369F3F999FECF209106013091E6
:107DC000070132BD21BDF89A90B58091C00085FFB2
:107DD000FCCF9093C6002F5F3F4F30930701209355
:107DE00006014F5F5F4F4617570718F38091C00099
:107DF00085FDE5CE8091C00085FFF8CFE0CE81E023
:107E00000E94C73C67CE0E94763C803209F08CCE3F
:107E10008091C00085FFFCCFF092C6008091C00029
:107E200085FFFCCFE092C6008091C00085FFFCCFAB
:107E3000D092C6008091C00085FFFCCFC092C600E2
:107E40008091C00085FFFCCFB092C60043CEE09188
:107E50000601F091070194918091C00085FFFCCF4D
:107E60009093C6009CCF80E10E94C73C33CE0E9415
:107E7000763C0E94763C182F0E94763C112309F430
:107E800083C0113009F484C08FE00E94C73C22CE29
:107E900080910C02816080930C02E5CE80910C02EF
:107EA000816080930C0259CF809107018823880F4D
:107EB000880B8A2180930B02809106019091070123
:107EC000880F991F90930701809306018091080203
:107ED00080FF09C080910802909109020196909359
:107EE000090280930802F894F999FECF1127E091D6
:107EF0000601F0910701C8E0D1E08091080290915D
:107F00000902103091F40091570001700130D9F34B
:107F100003E000935700E89500915700017001308D
:107F2000D9F301E100935700E89509901990009169
:107F3000570001700130D9F301E000935700E89534
:107F40001395103498F011270091570001700130FB
:107F5000D9F305E000935700E895009157000170B0
:107F60000130D9F301E100935700E895329602976A
:107F700009F0C7CF103011F00296E5CF112480919F
:107F8000C00085FFB9CEBCCE8EE10E94C73CA2CD19
:0C7F900085E90E94C73C9ECDF894FFCF0D
:027F9C00800063
:040000030000780081
:00000001FF
