:100000000C9462000C948A000C948A000C948A0070
:100010000C948A000C948A000C948A000C948A0038
:100020000C948A000C948A000C948A000C948A0028
:100030000C948A000C948A000C948A000C948A0018
:100040000C9400030C948A000C94CE020C94A80229
:100050000C948A000C948A000C948A000C948A00F8
:100060000C948A000C948A000000000024002700F1
:100070002A0000000000250028002B0000000000DE
:1000800023002600290004040404040404040202DA
:100090000202020203030303030301020408102007
:1000A0004080010204081020010204081020000012
:1000B0000008000201000003040700000000000027
:1000C0000000511211241FBECFEFD8E0DEBFCDBF1C
:1000D00011E0A0E0B1E0EAE1F7E202C005900D9284
:1000E000A236B107D9F722E0A2E6B1E001C01D9225
:1000F000AC34B207E1F710E0C2E6D0E004C02197CB
:10010000FE010E948513C136D107C9F70E944A0338
:100110000C948B130C940000AF92BF92CF92DF929D
:10012000EF92FF920F931F93CF93DF936C017B01AC
:100130008B01040F151FEB015E01AE18BF08C0173D
:10014000D10759F06991D601ED91FC910190F081B0
:10015000E02DC6010995892B79F7C501DF91CF9173
:100160001F910F91FF90EF90DF90CF90BF90AF90D5
:100170000895FC01538D448D252F30E0842F90E0AD
:10018000821B930B541710F0CF9608950197089592
:10019000FC01918D828D981761F0A28DAE0FBF2F5B
:1001A000B11D5D968C91928D9F5F9F73928F90E0B1
:1001B00008958FEF9FEF0895FC01918D828D981720
:1001C00031F0828DE80FF11D858D90E008958FEF5D
:1001D0009FEF0895FC01918D228D892F90E0805C26
:1001E0009F4F821B91098F73992708958FEA91E0A1
:1001F0000E94EA0021E0892B09F420E0822F089573
:1002000080E090E0892B29F00E94F60081110C9487
:1002100000000895FC01A48DA80FB92FB11DA35AA9
:10022000BF4F2C91848D90E001968F739927848F16
:10023000A689B7892C93A089B1898C918370806439
:100240008C93938D848D981306C00288F389E02DDA
:1002500080818F7D80830895EF92FF920F931F938B
:10026000CF93DF93EC0181E0888F9B8D8C8D981369
:100270001AC0E889F989808185FF15C09FB7F89475
:10028000EE89FF896083E889F989808183708064C1
:1002900080839FBF81E090E0DF91CF911F910F910C
:1002A000FF90EF900895F62E0B8D10E00F5F1F4F1B
:1002B0000F731127E02E8C8D8E110CC00FB607FC2A
:1002C000FACFE889F989808185FFF5CFCE010E94B8
:1002D0000A01F1CFEB8DEC0FFD2FF11DE35AFF4F1B
:1002E000F0829FB7F8940B8FEA89FB898081806246
:1002F000CFCFCF93DF93EC01888D8823B9F0AA8903
:10030000BB89E889F9898C9185FD03C0808186FDD0
:100310000DC00FB607FCF7CF8C9185FFF2CF80811F
:1003200085FFEDCFCE010E940A01E9CFDF91CF9189
:100330000895833081F028F4813099F08230A9F05B
:1003400008958730A9F08830C9F08430B1F48091E5
:1003500080008F7D03C0809180008F778093800024
:10036000089584B58F7784BD089584B58F7DFBCFC4
:100370008091B0008F778093B00008958091B00095
:100380008F7DF9CFCF93DF93282F30E0F901E2552D
:10039000FF4F8491F901E656FF4FD491F901EA57D6
:1003A000FF4FC491CC23A1F081110E949901EC2F41
:1003B000F0E0EE0FFF1FE458FF4FA591B491EC91D0
:1003C000ED2381E090E009F480E0DF91CF91089582
:1003D00080E090E0FACF1F93CF93DF93282F30E097
:1003E000F901E255FF4F8491F901E656FF4FD49190
:1003F000F901EA57FF4FC491CC23A9F0162F8111C0
:100400000E949901EC2FF0E0EE0FFF1FEE58FF4F16
:10041000A591B4918FB7F894EC91111108C0D095C3
:10042000DE23DC938FBFDF91CF911F910895DE2BE8
:10043000F8CFCF93DF9390E0FC01E656FF4F249175
:100440008A579F4FFC0184918823C9F090E0880F60
:10045000991FFC01E859FF4FA591B491FC01EE589A
:10046000FF4FC591D49161110DC09FB7F8948C9145
:10047000209582238C938881282328839FBFDF9136
:10048000CF910895623051F49FB7F8943C91822F38
:10049000809583238C93E8812E2BEFCF8FB7F89430
:1004A000EC912E2B2C938FBFEACF8E3008F08E501C
:1004B0008770806480937C0080917A008064809350
:1004C0007A0080917A0086FDFCCF8091780090912F
:1004D000790008953FB7F894809167019091680181
:1004E000A0916901B0916A0126B5A89B05C02F3F74
:1004F00019F00196A11DB11D3FBFBA2FA92F982F4A
:100500008827BC01CD01620F711D811D911D42E044
:10051000660F771F881F991F4A95D1F708952FB747
:10052000F8946091630170916401809165019091EC
:1005300066012FBF0895FC0101900020E9F7319773
:10054000AF01481B590BBC018FEA91E00C948C0061
:100550001F920F920FB60F9211242F933F934F9338
:100560005F936F937F938F939F93AF93BF93EF931B
:10057000FF938FEA91E00E940A01FF91EF91BF91F2
:10058000AF919F918F917F916F915F914F913F912B
:100590002F910F900FBE0F901F9018951F920F92E2
:1005A0000FB60F9211242F938F939F93EF93FF9386
:1005B000E091BF01F091C0018081E091C501F0910F
:1005C000C60182FD1BC090818091C8018F5F8F732F
:1005D0002091C901821741F0E091C801F0E0E15596
:1005E000FE4F958F8093C801FF91EF919F918F915E
:1005F0002F910F900FBE0F901F9018958081F4CF10
:100600001F920F920FB60F9211242F933F938F9347
:100610009F93AF93BF938091630190916401A091E8
:100620006501B09166013091620123E0230F2D37FF
:1006300058F50196A11DB11D2093620180936301BD
:1006400090936401A0936501B09366018091670166
:1006500090916801A0916901B0916A010196A11D74
:10066000B11D8093670190936801A0936901B093D5
:100670006A01BF91AF919F918F913F912F910F9000
:100680000FBE0F901F90189526E8230F0296A11D0C
:10069000B11DD2CFCF93DF9300D0CDB7DEB7789422
:1006A00084B5826084BD84B5816084BD85B5826077
:1006B00085BD85B5816085BD80916E008160809328
:1006C0006E00109281008091810082608093810091
:1006D00080918100816080938100809180008160A1
:1006E000809380008091B10084608093B1008091FC
:1006F000B00081608093B00080917A008460809324
:100700007A0080917A00826080937A0080917A00EA
:10071000816080937A0080917A00806880937A006B
:100720001092C100E091BF01F091C00182E080838E
:10073000E091BB01F091BC011082E091BD01F0910C
:10074000BE0180E180831092C701E091C301F09166
:10075000C40186E08083E091C101F091C2018081F3
:1007600080618083E091C101F091C2018081886045
:100770008083E091C101F091C20180818068808313
:10078000E091C101F091C20180818F7D808362E0A0
:1007900084E00E94190260E085E00E94190260E096
:1007A00086E00E94190260E087E00E94190260E082
:1007B00088E00E94190260E089E00E94190260E06E
:1007C0008AE00E94190260E08BE00E94190260E05A
:1007D0008CE00E94190260E08DE00E94190260E046
:1007E0008EE00E94190260E08FE00E94190261E031
:1007F00083E00E9419020E946A024B015C0168EECC
:10080000C62E63E0D62EE12CF12C0E946A026819F4
:1008100079098A099B09683E734081059105A8F30F
:1008200021E0C21AD108E108F10838EE830E33E066
:10083000931EA11CB11CC114D104E104F10429F7D9
:100840008AE191E00E949B020CE010E03BE0632E05
:10085000712C4AE0E42EF12C59E0852E912C88E091
:10086000A82EB12C94E0292E312C23E0422E512CBD
:1008700084E00E94C201892B09F074C281E090E0FB
:100880009093AE018093AD0185E00E94C201892B57
:1008900009F06DC221E030E03093AC012093AB0150
:1008A00086E00E94C201892B09F066C241E050E057
:1008B0005093AA014093A90187E00E94C201892BAD
:1008C00009F05FC281E090E09093A8018093A701B6
:1008D00088E00E94C201892B09F058C221E030E073
:1008E0003093A6012093A50189E00E94C201892BC3
:1008F00009F051C241E050E05093A4014093A3019C
:100900008AE00E94C201892B09F04AC281E090E08E
:100910009093A2018093A1018BE00E94C201892BD8
:1009200009F043C221E030E03093A00120939F0101
:100930008CE00E94C201892B09F03CC241E050E0EA
:1009400050939E0140939D018DE00E94C201892B2E
:1009500009F035C281E090E090939C0180939B0167
:100960008EE00E94C201892B09F02EC221E030E006
:1009700030939A01209399018FE00E94C201892B44
:1009800009F027C241E050E050939801409397014D
:1009900080910201909103018130910509F065C2B7
:1009A00084E00E94C201892B09F018C281E090E026
:1009B00090939601809395010E948F02609391011C
:1009C0007093920180939301909394018091AD0173
:1009D0009091AE018130910509F08EC22091AB015A
:1009E0003091AC01232B09F042C02091A901309134
:1009F000AA01232BE1F52091A7013091A801232B17
:100A0000B1F52091A5013091A601232B81F520910C
:100A1000A3013091A401232B51F52091A101309124
:100A2000A201232B21F520919F013091A001232BBE
:100A3000F1F420919D0130919E01232BC1F420916E
:100A40009B0130919C01232B91F4209199013091CD
:100A50009A01232B61F42091970130919801232B67
:100A600031F441E050E05093900140938F01209188
:100A70008F013091900130930101209300012130CA
:100A8000310509F091C24091AB015091AC01413068
:100A9000510531F442E050E05093010140930001D0
:100AA0004091A9015091AA014130510521F4509281
:100AB0000101409200014091A7015091A8014130ED
:100AC000510521F430920101209200014091A501CD
:100AD0005091A6014130510531F445E050E050936A
:100AE0000101409300014091A3015091A4014130C4
:100AF000510531F446E050E050930101409300016C
:100B00004091A1015091A2014130510531F447E0DB
:100B100050E0509301014093000140919F0150919A
:100B2000A0014130510521F4B0920101A0920001D1
:100B300040919D0150919E014130510521F49092C8
:100B400001018092000140919B0150919C01413034
:100B5000510521F4F0920101E092000140919901C8
:100B600050919A014130510521F470920101609237
:100B7000000140919701509198014130510521F4B5
:100B800010930101009300012630310509F09AC24B
:100B90008130910521F490930101809300014091EF
:100BA000A9015091AA014130510521F4509201014F
:100BB000409200014091A7015091A8014130510598
:100BC00021F430920101209200014091A501509141
:100BD000A6014130510531F445E050E05093010148
:100BE000409300014091AB015091AC01413051055F
:100BF00031F442E050E050930101409300014091F4
:100C0000A1015091A2014130510531F447E050E07B
:100C1000509301014093000140919F015091A00128
:100C20004130510521F4B0920101A09200014091A0
:100C30009D0150919E014130510521F49092010196
:100C40008092000140919B0150919C0141305105DF
:100C500021F4F0920101E09200014091990150913C
:100C60009A014130510521F4709201016092000116
:100C700040919701509198014130510521F4109312
:100C80000101009300012B30310509F09AC2813037
:100C9000910521F490930101809300018091A901B5
:100CA0009091AA01019721F4509201014092000114
:100CB0008091A7019091A801019721F43092010140
:100CC000209200018091A5019091A601019731F435
:100CD00085E090E090930101809300018091A30151
:100CE0009091A401019731F426E030E030930101A6
:100CF000209300018091A1019091A201019731F40C
:100D000047E050E0509301014093000180919F0122
:100D10009091A001019721F4B0920101A0920001ED
:100D200080919D0190919E01019721F49092010183
:100D30008092000180919B0190919C01019721F488
:100D4000F0920101E09200018091AB019091AC0121
:100D5000019709F0F5C382E090E090930101809340
:100D60000001EEC31092AE011092AD018DCD109234
:100D7000AC011092AB0194CD1092AA011092A9017E
:100D80009BCD1092A8011092A701A2CD1092A601AE
:100D90001092A501A9CD1092A4011092A301B0CD8B
:100DA0001092A2011092A101B7CD1092A001109251
:100DB0009F01BECD10929E0110929D01C5CD109253
:100DC0009C0110929B01CCCD10929A011092990136
:100DD000D3CD1092980110929701DACD85E00E9450
:100DE000C201892B09F4E2CD86E00E94C201892B61
:100DF00009F4DCCD87E00E94C201892B09F4D6CD2D
:100E000088E00E94C201892B09F4D0CD89E00E94BC
:100E1000C201892B09F4CACD8AE00E94C201892B44
:100E200009F4C4CD8BE00E94C201892B09F4BECD28
:100E30008CE00E94C201892B09F4B8CD8DE00E949C
:100E4000C201892B09F4B2CD8EE00E94C201892B28
:100E500009F4ACCD8FE00E94C201892B09F4A6CD24
:100E60001092960110929501B1CD892B09F0AECD6B
:100E700084E00E94C201892BC1F185E00E94C20179
:100E8000892B99F186E00E94C201892B71F187E0DC
:100E90000E94C201892B49F188E00E94C201892B7E
:100EA00021F189E00E94C201892BF9F08AE00E94B9
:100EB000C201892BD1F08BE00E94C201892BA9F0DD
:100EC0008CE00E94C201892B81F08DE00E94C2015A
:100ED000892B59F08EE00E94C201892B31F08FE0FE
:100EE0000E94C201892B09F0BBCF21E030E0309392
:100EF0009601209395016ACD009709F0B8CD209115
:100F0000AB013091AC012130310509F014C72091BB
:100F1000A9013091AA01232B09F0A9CD2091A701A5
:100F20003091A801232B09F0A2CD2091A501309189
:100F3000A601232B09F09BCD2091A3013091A401A0
:100F4000232B09F094CD2091A1013091A201232BF4
:100F500009F08DCD20919F013091A001232B09F044
:100F600086CD20919D0130919E01232B09F07FCDEC
:100F700020919B0130919C01232B09F078CD209189
:100F8000990130919A01232B09F071CD209197019D
:100F900030919801232B09F06ACD22E030E03093A4
:100FA000900120938F0163CD2230310549F48130C7
:100FB000910509F075CD909301018093000170CDEA
:100FC0002330310511F00C9466118130910521F424
:100FD00090930101809300014091AB015091AC01CD
:100FE0004130510531F442E050E05093010140930B
:100FF00000014091A7015091A8014130510521F411
:1010000030920101209200014091A5015091A6016A
:101010004130510531F445E050E0509301014093D7
:1010200000014091A3015091A4014130510531F4D8
:1010300046E050E050930101409300014091A1012E
:101040005091A2014130510531F447E050E05093F6
:1010500001014093000140919F015091A001413056
:10106000510521F4B0920101A092000140919D012F
:1010700050919E014130510521F4909201018092DE
:10108000000140919B0150919C014130510521F498
:10109000F0920101E09200014091990150919A0172
:1010A0004130510521F4709201016092000140919C
:1010B0009701509198014130510521F4109301019D
:1010C000009300012730310509F071C1813091058D
:1010D00021F490930101809300014091A901509166
:1010E000AA014130510521F45092010140920001C2
:1010F0004091A7015091A8014130510521F430924F
:101100000101209200014091A5015091A6014130BA
:10111000510531F445E050E0509301014093000146
:101120004091A3015091A4014130510531F446E0B2
:1011300050E050930101409300014091AB01509168
:10114000AC014130510531F442E050E050930101CF
:101150004093000140919F015091A0014130510501
:1011600021F4B0920101A092000140919D015091A3
:101170009E014130510521F49092010180920001BD
:1011800040919B0150919C014130510521F4F09216
:101190000101E09200014091990150919A01413082
:1011A000510521F470920101609200014091970174
:1011B000509198014130510521F4109301010093A1
:1011C00000012C30310509F0C5C18130910521F4B1
:1011D00090930101809300018091A9019091AA014F
:1011E000019721F450920101409200018091A701E2
:1011F0009091A801019721F4309201012092000101
:101200008091A5019091A601019731F485E090E0CD
:1012100090930101809300018091A3019091A4011A
:10122000019731F426E030E0309301012093000172
:101230008091A1019091A201019731F447E050E023
:10124000509301014093000180919F019091A00172
:10125000019721F4B0920101A092000180919D01BB
:1012600090919E01019721F49092010180920001DA
:1012700080919B0190919C01019721F4F0920101D2
:10128000E09200018091990190919A01019721F4D7
:1012900070920101609200018091AB019091AC01CC
:1012A000019709F057C182E090E09093010180938B
:1012B000000150C18130910521F490930101809388
:1012C00000014091A9015091AA014130510521F43A
:1012D00050920101409200014091AB015091AC014C
:1012E0004130510531F442E050E050930101409308
:1012F00000014091A5015091A6014130510531F402
:1013000045E050E050930101409300014091A3015A
:101310005091A4014130510531F446E050E0509322
:101320000101409300014091A1015091A20141307F
:10133000510531F447E050E0509301014093000122
:1013400040919F015091A0014130510521F4B0928C
:101350000101A092000140919D0150919E014130F8
:10136000510521F4909201018092000140919B016E
:1013700050919C014130510521F4F0920101E0921D
:1013800000014091990150919A014130510521F499
:101390007092010160920001409197015091980173
:1013A0004130510521F410930101009300012830D0
:1013B000310509F45CC02930310511F00C94EB11B2
:1013C0008130910521F49093010180930001809177
:1013D000A9019091AA01019721F450920101409234
:1013E00000018091A7019091A801019721F430920A
:1013F0000101209200018091A5019091A601019721
:1014000031F485E090E09093010180930001809198
:10141000A3019091A401019731F426E030E03093CC
:101420000101209300018091A1019091A2010197F7
:1014300031F447E050E05093010140930001809166
:101440009F019091A001019721F4B0920101A09217
:1014500000018091AB019091AC01019709F05CC053
:1014600082E090E0909301018093000155C08130AB
:10147000910521F490930101809300018091A901CD
:101480009091AA01019721F450920101409200012C
:101490008091A7019091A801019721F43092010158
:1014A000209200018091A5019091A601019731F44D
:1014B00085E090E090930101809300018091A30169
:1014C0009091A401019731F426E030E030930101BE
:1014D000209300018091A1019091A201019731F424
:1014E00047E050E050930101409300018091AB012F
:1014F0009091AC01019731F482E090E0909301016A
:101500008093000180919D0190919E01019721F4AB
:10151000909201018092000180919B0190919C0129
:10152000019721F4F0920101E0920001809199016C
:1015300090919A01019721F470920101609200014B
:101540008091970190919801019721F410930101E6
:101550000093000184E10E945502C3970CF4C3C3B9
:1015600084E10E94550290938E0180938D0181E069
:1015700090E090938C0180938B0120918D013091AC
:101580008E01032E000C440B550B225331094109E7
:101590005109ABE0B0E00E9441132EEC31E040E095
:1015A00050E00E942213DA01C9010196A11DB11D6C
:1015B0008D3091050CF0A0C390938E0180938D0126
:1015C00084E10E945502C39774F080919501909137
:1015D0009601892B41F480918D0190918E01909319
:1015E00001018093000180918B0190918C012091E9
:1015F000890130918A012817390771F0892B21F46C
:101600008EE391E00E949B0280918B0190918C016E
:1016100090938A0180938901C0908D01D0908E01B2
:1016200080918701909188018C159D0589F0C114E6
:10163000D10471F00E948F02609391017093920126
:101640008093930190939401D0928801C092870176
:1016500080910001909101012091850130918601D6
:101660002817390709F4D4C0019761F48DE191E09E
:101670000E949B028091000190910101909386014C
:10168000809385018091000190910101029761F49E
:101690008FE191E00E949B028091000190910101F5
:1016A00090938601809385018091000190910101C2
:1016B000039761F481E291E00E949B028091000116
:1016C00090910101909386018093850180910001A2
:1016D00090910101049761F483E291E00E949B02E2
:1016E0008091000190910101909386018093850182
:1016F0008091000190910101059761F485E291E0EC
:101700000E949B02809100019091010190938601BB
:10171000809385018091000190910101069761F409
:1017200087E291E00E949B0280910001909101016B
:101730009093860180938501809100019091010131
:10174000079761F489E291E00E949B028091000179
:101750009091010190938601809385018091000111
:1017600090910101089761F48BE291E00E949B0245
:1017700080910001909101019093860180938501F1
:101780008091000190910101099761F48DE291E04F
:101790000E949B028091000190910101909386012B
:1017A0008093850180910001909101010A9761F475
:1017B0008FE291E00E949B028091000190910101D3
:1017C00090938601809385018091000190910101A1
:1017D0000B9761F481E391E00E949B0280910001EC
:1017E0009091010190938601809385018091000181
:1017F000909101010C9761F483E391E00E949B02B8
:101800008091000190910101909386018093850160
:1018100080919501909196012091830130918401EE
:1018200028173907B9F0009709F06BC28EE391E0F1
:101830000E949B0280919501909196019093840162
:101840008093830110920101109200011092860191
:101850001092850185E10E9455020A9734F421E037
:1018600030E0309382012093810185E10E9455028E
:101870000A9724F01092820110928101C090810198
:10188000D090820180917F01909180018C159D05FF
:1018900091F031E0C316D10471F40E948F0260937D
:1018A0007B0170937C0180937D0190937E01D092A7
:1018B0008001C0927F0180917F0190918001C816C4
:1018C000D90671F1CD2861F54091020150910301D3
:1018D0005A834983C0907901D0907A010E948F0287
:1018E00020917B0130917C0140917D0150917E01DE
:1018F000DC01CB01821B930BA40BB50B893E53E09B
:101900009507A105B10508F401C289819A81019664
:1019100090930301809302011092800110927F0145
:101920008091020190910301029724F0109203012B
:10193000109202018091790190917A01029724F02E
:1019400010927A011092790181E10E945502813052
:10195000924034F081E090E0909378018093770199
:1019600081E10E9455028130924024F41092780166
:101970001092770180917701909178012091750103
:10198000309176012817390789F08130910571F47B
:101990002091790130917A012F5F3F4F30937A0186
:1019A00020937901909376018093750183E10E94E1
:1019B00055028C3092400CF4B7C141E050E0509396
:1019C000740140937301809173019091740120918F
:1019D0007101309172012817390721F1019711F532
:1019E0000E94CA122CE030E040E050E00E94221336
:1019F0006F5F7F4F8F4F9F4F7093700160936F01A8
:101A00000E948F02609391017093920180939301E1
:101A1000909394018091730190917401909372015D
:101A2000809371018091950190919601892B09F025
:101A30000BC18091790190917A0120916D013091D3
:101A40006E012817390701F1892B61F485E391E0D4
:101A50000E949B028091790190917A0190936E018E
:101A600080936D018091790190917A01019761F4E1
:101A700089E391E00E949B028091790190917A0123
:101A800090936E0180936D0180916F019091700130
:101A900020916B0130916C012817390709F4D4C0EB
:101AA000019761F48DE391E00E949B0280916F01A8
:101AB0009091700190936C0180936B0180916F0104
:101AC00090917001029761F480E491E00E949B0282
:101AD00080916F019091700190936C0180936B01E4
:101AE00080916F0190917001039761F483E491E01C
:101AF0000E949B0280916F019091700190936C0104
:101B000080936B0180916F0190917001049761F453
:101B100086E491E00E949B0280916F019091700198
:101B200090936C0180936B0180916F019091700193
:101B3000059761F489E491E00E949B0280916F0116
:101B40009091700190936C0180936B0180916F0173
:101B500090917001069761F48CE491E00E949B02E1
:101B600080916F019091700190936C0180936B0153
:101B700080916F0190917001079761F48FE491E07B
:101B80000E949B0280916F019091700190936C0173
:101B900080936B0180916F0190917001089761F4BF
:101BA00082E591E00E949B0280916F01909170010B
:101BB00090936C0180936B0180916F019091700103
:101BC000099761F485E591E00E949B0280916F0185
:101BD0009091700190936C0180936B0180916F01E3
:101BE000909170010A9761F488E591E00E949B0250
:101BF00080916F019091700190936C0180936B01C3
:101C000080916F01909170010B9761F48BE591E0E9
:101C10000E949B0280916F019091700190936C01E2
:101C200080936B0180916F01909170010C9761F42A
:101C30008EE591E00E949B0280916F01909170016E
:101C400090936C0180936B01809177019091780162
:101C50009093760180937501809173019091740146
:101C60009093720180937101809181019091820122
:101C70009093800180937F0180E10E9455028D3214
:101C8000914054F00E948F026093910170939201F1
:101C900080939301909394010E948F02209191016F
:101CA000309192014091930150919401621B730B0A
:101CB000840B950B6B30710581059105D0F561E0C2
:101CC00083E00E94EB0180E090E0892B11F40C94FA
:101CD00038040E94F600882311F40C942F040E940B
:101CE00000000C942F0410928E0110928D0110921E
:101CF0008C0110928B0141CC10938E0100938D01C9
:101D00005FCC9093840180938301A4CD883E93405F
:101D1000A105B10509F404CE3FEFC31AD30AD0924E
:101D20007A01C0927901F8CD10927401109273017A
:101D30004ACE60E0C5CF232B11F00C9437052091DB
:101D4000A9013091AA0121303105D1F54091A701B7
:101D50005091A801452BA1F54091A5015091A601F4
:101D6000452B71F54091A3015091A401452B41F5FC
:101D70004091A1015091A201452B11F540919F0185
:101D80005091A001452BE1F440919D0150919E019D
:101D9000452BB1F440919B0150919C01452B81F45E
:101DA0004091990150919A01452B51F4409197012E
:101DB00050919801452B21F45092900140928F014F
:101DC00021153105D9F54091A7015091A801413065
:101DD0005105A1F54091A5015091A601452B71F542
:101DE0004091A3015091A401452B41F54091A101DF
:101DF0005091A201452B11F540919F015091A001F6
:101E0000452BE1F440919D0150919E01452BB1F489
:101E100040919B0150919C01452B81F44091990187
:101E200050919A01452B51F440919701509198019E
:101E3000452B21F43092900120928F01211531051C
:101E4000E9F54091A7015091A801452BB9F54091C2
:101E5000A5015091A6014130510581F54091A301A2
:101E60005091A401452B51F54091A1015091A2013F
:101E7000452B21F540919F015091A001452BF1F494
:101E800040919D0150919E01452BC1F440919B01D1
:101E900050919C01452B91F44091990150919A01E8
:101EA000452B61F44091970150919801452B31F4F5
:101EB00045E050E05093900140938F01211531058A
:101EC000E9F54091A7015091A801452BB9F5409142
:101ED000A5015091A601452B89F54091A301509190
:101EE000A4014130510551F54091A1015091A20149
:101EF000452B21F540919F015091A001452BF1F414
:101F000040919D0150919E01452BC1F440919B0150
:101F100050919C01452B91F44091990150919A0167
:101F2000452B61F44091970150919801452B31F474
:101F300046E050E05093900140938F012115310508
:101F4000E9F54091A7015091A801452BB9F54091C1
:101F5000A5015091A601452B89F54091A30150910F
:101F6000A401452B59F54091A1015091A2014130A6
:101F7000510521F540919F015091A001452BF1F4AD
:101F800040919D0150919E01452BC1F440919B01D0
:101F900050919C01452B91F44091990150919A01E7
:101FA000452B61F44091970150919801452B31F4F4
:101FB00047E050E05093900140938F012115310587
:101FC000D9F54091A7015091A801452BA9F5409161
:101FD000A5015091A601452B79F54091A30150919F
:101FE000A401452B49F54091A1015091A201452B37
:101FF00019F540919F015091A00141305105E1F444
:1020000040919D0150919E01452BB1F440919B015F
:1020100050919C01452B81F44091990150919A0176
:10202000452B51F44091970150919801452B21F493
:10203000B0929001A0928F0121153105D9F5409100
:10204000A7015091A801452BA9F54091A5015091F8
:10205000A601452B79F54091A3015091A401452B90
:1020600049F54091A1015091A201452B19F54091EC
:102070009F015091A001452BE9F440919D015091A1
:102080009E0141305105B1F440919B0150919C015A
:10209000452B81F44091990150919A01452B51F4BF
:1020A0004091970150919801452B21F49092900115
:1020B00080928F0121153105D9F54091A7015091EA
:1020C000A801452BA9F54091A5015091A601452BEA
:1020D00079F54091A3015091A401452B49F5409118
:1020E000A1015091A201452B19F540919F015091FA
:1020F000A001452BE9F440919D0150919E01452B93
:10210000B9F440919B0150919C014130510581F4FB
:102110004091990150919A01452B51F440919701BA
:1021200050919801452B21F4F0929001E0928F019B
:1021300021153105D9F54091A7015091A801452BF2
:10214000A9F54091A5015091A601452B79F5409143
:10215000A3015091A401452B49F54091A101509153
:10216000A201452B19F540919F015091A001452BEB
:10217000E9F440919D0150919E01452BB9F44091A5
:102180009B0150919C01452B89F4409199015091FC
:102190009A014130510551F44091970150919801B5
:1021A000452B21F47092900160928F012115310529
:1021B000D9F54091A7015091A801452BA9F540916F
:1021C000A5015091A601452B79F54091A3015091AD
:1021D000A401452B49F54091A1015091A201452B45
:1021E00019F540919F015091A001452BE9F44091D0
:1021F0009D0150919E01452BB9F440919B01509156
:102200009C01452B89F44091990150919A01452BED
:1022100059F440919701509198014130510521F4B2
:102220001093900100938F01232B11F00C9437052C
:102230002091A7013091A801232B11F00C943705B0
:102240002091A5013091A601232B11F00C943705A4
:102250002091A3013091A401232B11F00C94370598
:102260002091A1013091A201232B11F00C9437058C
:1022700020919F013091A001232B11F00C94370580
:1022800020919D0130919E01232B11F00C94370574
:1022900020919B0130919C01232B11F00C94370568
:1022A0002091990130919A01232B11F00C9437055C
:1022B0002091970130919801232B11F00C94370550
:1022C0001092900110928F010C9437052430310543
:1022D00011F40C945A092530310511F00C94C40501
:1022E0008130910521F49093010180930001409188
:1022F000A9015091AA014130510521F450920101E8
:10230000409200014091A7015091A8014130510530
:1023100021F430920101209200014091AB015091D3
:10232000AC014130510531F442E050E050930101DD
:10233000409300014091A3015091A4014130510507
:1023400031F446E050E05093010140930001409188
:10235000A1015091A2014130510531F447E050E014
:10236000509301014093000140919F015091A001C1
:102370004130510521F4B0920101A0920001409139
:102380009D0150919E014130510521F4909201012F
:102390008092000140919B0150919C014130510578
:1023A00021F4F0920101E0920001409199015091D5
:1023B0009A014130510521F47092010160920001AF
:1023C00040919701509198014130510521F41093AB
:1023D0000101009300012A30310511F00C944306ED
:1023E0008130910521F49093010180930001809147
:1023F000A9019091AA01019721F450920101409204
:1024000000018091A7019091A801019721F43092D9
:102410000101209200018091A5019091A6010197F0
:1024200031F485E090E09093010180930001809168
:10243000A3019091A401019731F426E030E030939C
:102440000101209300018091A1019091A2010197C7
:1024500031F447E050E05093010140930001809136
:102460009F019091A001019721F4B0920101A092E7
:10247000000180919D0190919E01019721F490921D
:102480000101809200018091AB019091AC01019714
:1024900009F04CC882E090E0909301018093000124
:1024A00045C8EFEAF1E01382128288EE93E0A0E0E3
:1024B000B0E084839583A683B7838CE091E0918319
:1024C000808385EC90E09587848784EC90E0978703
:1024D000868780EC90E0918B808B81EC90E0938BF1
:1024E000828B82EC90E0958B848B86EC90E0978BCE
:1024F000868B118E128E138E148E08958F929F925A
:10250000AF92BF92CF92DF92EF92FF92CF93DF9381
:10251000EC01688179818A819B8161157105810552
:10252000910521F464E279ED8BE597E02DE133EF3D
:1025300041E050E00E94221349015A019B01AC0185
:10254000A7EAB1E40E9441136B017C01ACEEB4EF49
:10255000A50194010E944F13C60ED71EE81EF91E56
:10256000F7FE06C081E0C81AD108E10880E8F80A41
:10257000C882D982EA82FB82C701B6019F77DF91C8
:10258000CF91FF90EF90DF90CF90BF90AF909F9052
:102590008F9008958F929F92AF92BF92CF92DF92C9
:1025A000EF92FF9260910401709105018091060104
:1025B00090910701611571058105910521F464E28F
:1025C00079ED8BE597E02DE133EF41E050E00E949B
:1025D000221349015A019B01AC01A7EAB1E40E9410
:1025E00041136B017C01ACEEB4EFA50194010E9494
:1025F0004F13C60ED71EE81EF91EF7FE06C081E077
:10260000C81AD108E10880E8F80AC0920401D09203
:102610000501E0920601F0920701C701B6019F771C
:10262000FF90EF90DF90CF90BF90AF909F908F90F2
:1026300008956093040170930501809306019093BF
:1026400007010895052E97FB1EF400940E9439138C
:1026500057FD07D00E94541307FC03D04EF40C948E
:10266000391350954095309521953F4F4F4F5F4F0F
:10267000089590958095709561957F4F8F4F9F4FEE
:1026800008950E947613A59F900DB49F900DA49F6E
:10269000800D911D11240895B7FF0C9441130E94E1
:1026A0004113821B930B0895A1E21A2EAA1BBB1B98
:1026B000FD010DC0AA1FBB1FEE1FFF1FA217B3070E
:1026C000E407F50720F0A21BB30BE40BF50B661F24
:1026D000771F881F991F1A9469F7609570958095E8
:1026E00090959B01AC01BD01CF010895A29FB0015F
:1026F000B39FC001A39F700D811D1124911DB29F36
:10270000700D811D1124911D0895EE0FFF1F05907E
:0A271000F491E02D0994F894FFCF36
:10271A000100010001000000000000002C018C00F3
:10272A00B9007901EA00C800DC006130006100628A
:10273A000063006400650066006700680069006A5B
:10274A00006B006C00787830007A7A300031300003
:10275A003230003330003430003530003630003744
:10276A0030003830003930003A30003B30003C301D
:02277A0000005D
:107E0000112484B714BE81FFF0D085E080938100F7
:107E100082E08093C00088E18093C10086E0809377
:107E2000C20080E18093C4008EE0C9D0259A86E02C
:107E300020E33CEF91E0309385002093840096BBD3
:107E4000B09BFECF1D9AA8958150A9F7CC24DD24C4
:107E500088248394B5E0AB2EA1E19A2EF3E0BF2EE7
:107E6000A2D0813461F49FD0082FAFD0023811F036
:107E7000013811F484E001C083E08DD089C08234E0
:107E800011F484E103C0853419F485E0A6D080C0E4
:107E9000853579F488D0E82EFF2485D0082F10E0AE
:107EA000102F00270E291F29000F111F8ED06801E7
:107EB0006FC0863521F484E090D080E0DECF843638
:107EC00009F040C070D06FD0082F6DD080E0C81688
:107ED00080E7D80618F4F601B7BEE895C0E0D1E017
:107EE00062D089930C17E1F7F0E0CF16F0E7DF06D8
:107EF00018F0F601B7BEE89568D007B600FCFDCFD4
:107F0000A601A0E0B1E02C9130E011968C91119780
:107F100090E0982F8827822B932B1296FA010C0160
:107F200087BEE89511244E5F5F4FF1E0A038BF0790
:107F300051F7F601A7BEE89507B600FCFDCF97BE46
:107F4000E89526C08437B1F42ED02DD0F82E2BD052
:107F50003CD0F601EF2C8F010F5F1F4F84911BD097
:107F6000EA94F801C1F70894C11CD11CFA94CF0C13
:107F7000D11C0EC0853739F428D08EE10CD085E9AC
:107F80000AD08FE07ACF813511F488E018D01DD067
:107F900080E101D065CF982F8091C00085FFFCCF94
:107FA0009093C60008958091C00087FFFCCF809118
:107FB000C00084FD01C0A8958091C6000895E0E648
:107FC000F0E098E1908380830895EDDF803219F02E
:107FD00088E0F5DFFFCF84E1DECF1F93182FE3DFCA
:107FE0001150E9F7F2DF1F91089580E0E8DFEE27F6
:047FF000FF270994CA
:027FFE00040479
:0400000300007E007B
:00000001FF
